{
  "contractName": "RingGame",
  "abi": [
    {
      "constant": true,
      "inputs": [],
      "name": "time",
      "outputs": [
        {
          "name": "",
          "type": "uint256"
        }
      ],
      "payable": false,
      "stateMutability": "view",
      "type": "function"
    },
    {
      "constant": true,
      "inputs": [],
      "name": "length",
      "outputs": [
        {
          "name": "",
          "type": "uint256"
        }
      ],
      "payable": false,
      "stateMutability": "view",
      "type": "function"
    },
    {
      "constant": true,
      "inputs": [
        {
          "name": "",
          "type": "uint256"
        }
      ],
      "name": "bets",
      "outputs": [
        {
          "name": "betType",
          "type": "uint256"
        },
        {
          "name": "player",
          "type": "address"
        },
        {
          "name": "value",
          "type": "uint256"
        }
      ],
      "payable": false,
      "stateMutability": "view",
      "type": "function"
    },
    {
      "constant": true,
      "inputs": [
        {
          "name": "",
          "type": "uint256"
        }
      ],
      "name": "previous",
      "outputs": [
        {
          "name": "random",
          "type": "uint256"
        },
        {
          "name": "salt",
          "type": "bytes32"
        }
      ],
      "payable": false,
      "stateMutability": "view",
      "type": "function"
    },
    {
      "constant": true,
      "inputs": [],
      "name": "random",
      "outputs": [
        {
          "name": "",
          "type": "uint256"
        }
      ],
      "payable": false,
      "stateMutability": "view",
      "type": "function"
    },
    {
      "constant": true,
      "inputs": [
        {
          "name": "",
          "type": "address"
        },
        {
          "name": "",
          "type": "uint256"
        }
      ],
      "name": "myBets",
      "outputs": [
        {
          "name": "betType",
          "type": "uint256"
        },
        {
          "name": "value",
          "type": "uint256"
        }
      ],
      "payable": false,
      "stateMutability": "view",
      "type": "function"
    },
    {
      "constant": true,
      "inputs": [],
      "name": "salt",
      "outputs": [
        {
          "name": "",
          "type": "bytes32"
        }
      ],
      "payable": false,
      "stateMutability": "view",
      "type": "function"
    },
    {
      "constant": true,
      "inputs": [],
      "name": "hashval",
      "outputs": [
        {
          "name": "",
          "type": "bytes32"
        }
      ],
      "payable": false,
      "stateMutability": "view",
      "type": "function"
    },
    {
      "inputs": [],
      "payable": false,
      "stateMutability": "nonpayable",
      "type": "constructor"
    },
    {
      "anonymous": false,
      "inputs": [
        {
          "indexed": false,
          "name": "player",
          "type": "address"
        },
        {
          "indexed": false,
          "name": "amount",
          "type": "uint256"
        }
      ],
      "name": "NewBetTwo",
      "type": "event"
    },
    {
      "anonymous": false,
      "inputs": [
        {
          "indexed": false,
          "name": "player",
          "type": "address"
        },
        {
          "indexed": false,
          "name": "amount",
          "type": "uint256"
        }
      ],
      "name": "NewBetThree",
      "type": "event"
    },
    {
      "anonymous": false,
      "inputs": [
        {
          "indexed": false,
          "name": "player",
          "type": "address"
        },
        {
          "indexed": false,
          "name": "amount",
          "type": "uint256"
        }
      ],
      "name": "NewBetFive",
      "type": "event"
    },
    {
      "anonymous": false,
      "inputs": [
        {
          "indexed": false,
          "name": "player",
          "type": "address"
        },
        {
          "indexed": false,
          "name": "amount",
          "type": "uint256"
        }
      ],
      "name": "NewBetFifty",
      "type": "event"
    },
    {
      "anonymous": false,
      "inputs": [
        {
          "indexed": false,
          "name": "time",
          "type": "uint256"
        }
      ],
      "name": "PlayGame",
      "type": "event"
    },
    {
      "anonymous": false,
      "inputs": [
        {
          "indexed": false,
          "name": "time",
          "type": "uint256"
        }
      ],
      "name": "StopGame",
      "type": "event"
    },
    {
      "constant": false,
      "inputs": [],
      "name": "betTwo",
      "outputs": [],
      "payable": true,
      "stateMutability": "payable",
      "type": "function"
    },
    {
      "constant": false,
      "inputs": [],
      "name": "betThree",
      "outputs": [],
      "payable": true,
      "stateMutability": "payable",
      "type": "function"
    },
    {
      "constant": false,
      "inputs": [],
      "name": "betFive",
      "outputs": [],
      "payable": true,
      "stateMutability": "payable",
      "type": "function"
    },
    {
      "constant": false,
      "inputs": [],
      "name": "betFifty",
      "outputs": [],
      "payable": true,
      "stateMutability": "payable",
      "type": "function"
    },
    {
      "constant": false,
      "inputs": [],
      "name": "play",
      "outputs": [
        {
          "name": "",
          "type": "uint256"
        }
      ],
      "payable": false,
      "stateMutability": "nonpayable",
      "type": "function"
    },
    {
      "constant": true,
      "inputs": [],
      "name": "betLenght",
      "outputs": [
        {
          "name": "",
          "type": "uint256"
        }
      ],
      "payable": false,
      "stateMutability": "view",
      "type": "function"
    },
    {
      "constant": false,
      "inputs": [
        {
          "name": "_type",
          "type": "uint256"
        }
      ],
      "name": "stop",
      "outputs": [],
      "payable": true,
      "stateMutability": "payable",
      "type": "function"
    },
    {
      "constant": true,
      "inputs": [
        {
          "name": "user",
          "type": "address"
        }
      ],
      "name": "getLength",
      "outputs": [
        {
          "name": "",
          "type": "uint256"
        }
      ],
      "payable": false,
      "stateMutability": "view",
      "type": "function"
    }
  ],
  "bytecode": "0x60806040526002805560038055600560045560326005556040805190810160405280600a81526020017f38765133583553746f59000000000000000000000000000000000000000000008152506008908051906020019062000063929190620000c5565b506000600d553480156200007657600080fd5b504260008190555033600160006101000a81548173ffffffffffffffffffffffffffffffffffffffff021916908373ffffffffffffffffffffffffffffffffffffffff16021790555062000174565b828054600181600116156101000203166002900490600052602060002090601f016020900481019282601f106200010857805160ff191683800117855562000139565b8280016001018555821562000139579182015b82811115620001385782518255916020019190600101906200011b565b5b5090506200014891906200014c565b5090565b6200017191905b808211156200016d57600081600090555060010162000153565b5090565b90565b61148280620001846000396000f3006080604052600436106100e6576000357c0100000000000000000000000000000000000000000000000000000000900463ffffffff16806316ada547146100eb5780631f7b6d321461011657806322af00fa146101415780633c311f3c146101bc578063593feacf1461020c5780635ec01e4d146102165780636299f8cf146102415780637f9b2de91461026157806391422550146102c957806393e84cd9146102d35780639dabb914146102fe578063bfa0b13314610308578063c1f003931461033b578063dd59d2e114610345578063eb00172914610378578063fe611a07146103a3575b600080fd5b3480156100f757600080fd5b506101006103fa565b6040518082815260200191505060405180910390f35b34801561012257600080fd5b5061012b610400565b6040518082815260200191505060405180910390f35b34801561014d57600080fd5b5061016c60048036038101908080359060200190929190505050610406565b604051808481526020018373ffffffffffffffffffffffffffffffffffffffff1673ffffffffffffffffffffffffffffffffffffffff168152602001828152602001935050505060405180910390f35b3480156101c857600080fd5b506101e76004803603810190808035906020019092919050505061045f565b6040518083815260200182600019166000191681526020019250505060405180910390f35b610214610483565b005b34801561022257600080fd5b5061022b6106c0565b6040518082815260200191505060405180910390f35b61025f600480360381019080803590602001909291905050506106c6565b005b34801561026d57600080fd5b506102ac600480360381019080803573ffffffffffffffffffffffffffffffffffffffff16906020019092919080359060200190929190505050610889565b604051808381526020018281526020019250505060405180910390f35b6102d16108c9565b005b3480156102df57600080fd5b506102e8610b06565b6040518082815260200191505060405180910390f35b610306610eef565b005b34801561031457600080fd5b5061031d61112c565b60405180826000191660001916815260200191505060405180910390f35b610343611132565b005b34801561035157600080fd5b5061035a61136f565b60405180826000191660001916815260200191505060405180910390f35b34801561038457600080fd5b5061038d611375565b6040518082815260200191505060405180910390f35b3480156103af57600080fd5b506103e4600480360381019080803573ffffffffffffffffffffffffffffffffffffffff169060200190929190505050611382565b6040518082815260200191505060405180910390f35b60005481565b60075481565b600e8181548110151561041557fe5b90600052602060002090600302016000915090508060000154908060010160009054906101000a900473ffffffffffffffffffffffffffffffffffffffff16908060020154905083565b600c6020528060005260406000206000915090508060000154908060010154905082565b62989680341015151561049557600080fd5b600e606060405190810160405280603281526020013373ffffffffffffffffffffffffffffffffffffffff16815260200134815250908060018154018082558091505090600182039060005260206000209060030201600090919290919091506000820151816000015560208201518160010160006101000a81548173ffffffffffffffffffffffffffffffffffffffff021916908373ffffffffffffffffffffffffffffffffffffffff16021790555060408201518160020155505050600160009054906101000a900473ffffffffffffffffffffffffffffffffffffffff1673ffffffffffffffffffffffffffffffffffffffff166108fc349081150290604051600060405180830381858888f193505050501580156105bb573d6000803e3d6000fd5b507f9b93b9feee7762992c2ad1bc3134a273b95544623d8382820423fe19d6712cca3334604051808373ffffffffffffffffffffffffffffffffffffffff1673ffffffffffffffffffffffffffffffffffffffff1681526020018281526020019250505060405180910390a1600b60003373ffffffffffffffffffffffffffffffffffffffff1673ffffffffffffffffffffffffffffffffffffffff16815260200190815260200160002060408051908101604052806032815260200134815250908060018154018082558091505090600182039060005260206000209060020201600090919290919091506000820151816000015560208201518160010155505050565b60065481565b6000600160009054906101000a900473ffffffffffffffffffffffffffffffffffffffff1673ffffffffffffffffffffffffffffffffffffffff163373ffffffffffffffffffffffffffffffffffffffff1614151561072457600080fd5b600090505b600e805490508110156108355781600e8281548110151561074657fe5b906000526020600020906003020160000154141561082857600e8181548110151561076d57fe5b906000526020600020906003020160010160009054906101000a900473ffffffffffffffffffffffffffffffffffffffff1673ffffffffffffffffffffffffffffffffffffffff166108fc600e838154811015156107c757fe5b906000526020600020906003020160000154600e848154811015156107e857fe5b906000526020600020906003020160020154029081150290604051600060405180830381858888f19350505050158015610826573d6000803e3d6000fd5b505b8080600101915050610729565b6000600e8161084491906113ce565b50426000819055507fb0f6e393e836b3fa2360731681f20187440362cd97fb998ae3dbbb5ad4ecb2a36000546040518082815260200191505060405180910390a15050565b600b602052816000526040600020818154811015156108a457fe5b9060005260206000209060020201600091509150508060000154908060010154905082565b6298968034101515156108db57600080fd5b600e606060405190810160405280600281526020013373ffffffffffffffffffffffffffffffffffffffff16815260200134815250908060018154018082558091505090600182039060005260206000209060030201600090919290919091506000820151816000015560208201518160010160006101000a81548173ffffffffffffffffffffffffffffffffffffffff021916908373ffffffffffffffffffffffffffffffffffffffff16021790555060408201518160020155505050600160009054906101000a900473ffffffffffffffffffffffffffffffffffffffff1673ffffffffffffffffffffffffffffffffffffffff166108fc349081150290604051600060405180830381858888f19350505050158015610a01573d6000803e3d6000fd5b507fdd92187a14de7740ac2c0b5abb8bdeb3f9c7b3337c2a76b834e4e0d3530c19e53334604051808373ffffffffffffffffffffffffffffffffffffffff1673ffffffffffffffffffffffffffffffffffffffff1681526020018281526020019250505060405180910390a1600b60003373ffffffffffffffffffffffffffffffffffffffff1673ffffffffffffffffffffffffffffffffffffffff16815260200190815260200160002060408051908101604052806002815260200134815250908060018154018082558091505090600182039060005260206000209060020201600090919290919091506000820151816000015560208201518160010155505050565b6000806000600160009054906101000a900473ffffffffffffffffffffffffffffffffffffffff1673ffffffffffffffffffffffffffffffffffffffff163373ffffffffffffffffffffffffffffffffffffffff16141515610b6757600080fd5b4491504290506036818360086040516020018084815260200183815260200182805460018160011615610100020316600290048015610bdd5780601f10610bbb576101008083540402835291820191610bdd565b820191906000526020600020905b815481529060010190602001808311610bc9575b505093505050506040516020818303038152906040526040518082805190602001908083835b602083101515610c285780518252602082019150602081019050602083039250610c03565b6001836020036101000a038019825116818451168082178552505050505050905001915050604051809103902060019004811515610c6257fe5b0660ff166006819055506001600660008282540192505081905550808260086040516020018084815260200183815260200182805460018160011615610100020316600290048015610ceb5780601f10610cc9576101008083540402835291820191610ceb565b820191906000526020600020905b815481529060010190602001808311610cd7575b505093505050506040516020818303038152906040526040518082805190602001908083835b602083101515610d365780518252602082019150602081019050602083039250610d11565b6001836020036101000a0380198251168184511680821785525050505050509050019150506040518091039020600a81600019169055506002600a54600654604051602001808360001916600019168152602001828152602001925050506040516020818303038152906040526040518082805190602001908083835b602083101515610dd85780518252602082019150602081019050602083039250610db3565b6001836020036101000a0380198251168184511680821785525050505050509050019150506020604051808303816000865af1158015610e1c573d6000803e3d6000fd5b5050506040513d6020811015610e3157600080fd5b8101908080519060200190929190505050600981600019169055506001600d600082825401925050819055507ff64d796e649654152635006c0e38eb3d2ec31920f3e6fb38f14aeb20c22c16896006546040518082815260200191505060405180910390a160408051908101604052806006548152602001600a5460001916815250600c6000600d54815260200190815260200160002060008201518160000155602082015181600101906000191690559050506006549250505090565b629896803410151515610f0157600080fd5b600e606060405190810160405280600381526020013373ffffffffffffffffffffffffffffffffffffffff16815260200134815250908060018154018082558091505090600182039060005260206000209060030201600090919290919091506000820151816000015560208201518160010160006101000a81548173ffffffffffffffffffffffffffffffffffffffff021916908373ffffffffffffffffffffffffffffffffffffffff16021790555060408201518160020155505050600160009054906101000a900473ffffffffffffffffffffffffffffffffffffffff1673ffffffffffffffffffffffffffffffffffffffff166108fc349081150290604051600060405180830381858888f19350505050158015611027573d6000803e3d6000fd5b507feecdfce47f3ba6fac5cb5a8826eb8e71bce2a86ad6b9950b9f2553aa428533af3334604051808373ffffffffffffffffffffffffffffffffffffffff1673ffffffffffffffffffffffffffffffffffffffff1681526020018281526020019250505060405180910390a1600b60003373ffffffffffffffffffffffffffffffffffffffff1673ffffffffffffffffffffffffffffffffffffffff16815260200190815260200160002060408051908101604052806003815260200134815250908060018154018082558091505090600182039060005260206000209060020201600090919290919091506000820151816000015560208201518160010155505050565b600a5481565b62989680341015151561114457600080fd5b600e606060405190810160405280600581526020013373ffffffffffffffffffffffffffffffffffffffff16815260200134815250908060018154018082558091505090600182039060005260206000209060030201600090919290919091506000820151816000015560208201518160010160006101000a81548173ffffffffffffffffffffffffffffffffffffffff021916908373ffffffffffffffffffffffffffffffffffffffff16021790555060408201518160020155505050600160009054906101000a900473ffffffffffffffffffffffffffffffffffffffff1673ffffffffffffffffffffffffffffffffffffffff166108fc349081150290604051600060405180830381858888f1935050505015801561126a573d6000803e3d6000fd5b507fac4d4313a1c1237abe16ef6286f78d3dd3f91c1c25b780bc6f483b2ba06279c03334604051808373ffffffffffffffffffffffffffffffffffffffff1673ffffffffffffffffffffffffffffffffffffffff1681526020018281526020019250505060405180910390a1600b60003373ffffffffffffffffffffffffffffffffffffffff1673ffffffffffffffffffffffffffffffffffffffff16815260200190815260200160002060408051908101604052806005815260200134815250908060018154018082558091505090600182039060005260206000209060020201600090919290919091506000820151816000015560208201518160010155505050565b60095481565b6000600e80549050905090565b6000600b60008373ffffffffffffffffffffffffffffffffffffffff1673ffffffffffffffffffffffffffffffffffffffff168152602001908152602001600020805490509050919050565b8154818355818111156113fb576003028160030283600052602060002091820191016113fa9190611400565b5b505050565b61145391905b8082111561144f576000808201600090556001820160006101000a81549073ffffffffffffffffffffffffffffffffffffffff0219169055600282016000905550600301611406565b5090565b905600a165627a7a723058202a5d566a0c0cdd9064ac56e0a125306c08822a7fcc3293b5e24f84aace5dbaa40029",
  "source": "pragma solidity ^0.4.23;\n\n\ncontract RingGame {\n    \n    uint public time;\n    address owner;\n    bool allowed;\n    uint two = 2;\n    uint three = 3;\n    uint five = 5;\n    uint fifty = 50;\n    uint public random;\n    uint public length;\n    string secretKey = \"8vQ3X5StoY\";\n    bytes32 public hashval;\n    bytes32 public salt;\n    mapping(address => MyBets[]) public myBets;\n    mapping(uint256 => PreviousGames) public previous;\n    uint256 previousCount = 0;\n\n    struct Bet {\n        uint betType;\n        address player;\n        uint value;\n    }\n    struct MyBets {\n        uint betType;\n        uint value;\n    }\n    \n    struct PreviousGames{\n        uint random;\n        bytes32 salt;\n    }\n    \n    Bet[] public bets;\n    \n    event NewBetTwo(address player, uint amount);\n    event NewBetThree(address player, uint amount);\n    event NewBetFive(address player, uint amount);\n    event NewBetFifty(address player, uint amount);\n    event PlayGame(uint time);\n    event StopGame(uint time);\n    \n    modifier OnlyOwner(){\n        require(msg.sender == owner);\n        _;\n    }\n    \n    constructor() public {\n        time = now;\n        owner = msg.sender;\n    }\n    \n    function betTwo() public payable {\n        require(msg.value >= 10 trx);\n        bets.push(Bet({\n            betType : 2,\n            player : msg.sender,\n            value : msg.value\n        }));\n        owner.transfer(msg.value);\n        emit NewBetTwo(msg.sender, msg.value);\n        myBets[msg.sender].push(MyBets({\n            betType: 2,\n            value: msg.value\n        }));\n    }\n    \n     function betThree() public payable {\n        require(msg.value >= 10 trx);\n        bets.push(Bet({\n            betType : 3,\n            player : msg.sender,\n            value : msg.value\n        }));\n        owner.transfer(msg.value);\n        emit NewBetThree(msg.sender, msg.value);\n        myBets[msg.sender].push(MyBets({\n            betType: 3,\n            value: msg.value\n        }));\n        \n    }\n    \n     function betFive() public payable {\n        require(msg.value >= 10 trx);\n        bets.push(Bet({\n            betType : 5,\n            player : msg.sender,\n            value : msg.value\n        }));\n        owner.transfer(msg.value);\n        emit NewBetFive(msg.sender, msg.value);\n        myBets[msg.sender].push(MyBets({\n            betType: 5,\n            value: msg.value\n        }));\n        \n    }\n    \n     function betFifty() public payable {\n        require(msg.value >= 10 trx);\n        bets.push(Bet({\n            betType : 50,\n            player : msg.sender,\n            value : msg.value\n        }));\n        owner.transfer(msg.value);\n        \n        emit NewBetFifty(msg.sender, msg.value);\n        myBets[msg.sender].push(MyBets({\n            betType: 50,\n            value: msg.value\n        }));\n        \n    }\n    \n    function play() public OnlyOwner returns (uint) {\n        uint256 diff = block.difficulty;\n        uint256 timestamp = now;\n       \n        random = uint8(uint256(keccak256(abi.encodePacked(timestamp,diff, secretKey)))%54);\n        random += 1;\n        salt = keccak256(abi.encodePacked(timestamp,diff, secretKey));\n        hashval = sha256(abi.encodePacked(salt,random));\n        previousCount += 1;\n        emit PlayGame(random);\n        previous[previousCount] = PreviousGames(random, salt);\n        return random;\n   }\n\n   function betLenght() public view returns (uint){\n       return bets.length;\n   }\n\n\n    function stop(uint _type) public payable OnlyOwner{\n        for(uint256 i = 0; i < bets.length; i++){\n           if(bets[i].betType == _type){\n               bets[i].player.transfer(bets[i].value*bets[i].betType);\n           } \n        }\n        \n        bets.length = 0;\n        time = now;\n        emit StopGame(time);\n    }\n\n    function getLength(address user) public view returns(uint256){\n        return myBets[user].length;\n    }\n    \n    \n}",
  "sourcePath": "/home/oscar/ring/contracts/RingGame.sol",
  "compiler": {
    "name": "solc",
    "version": "0.4.24-develop.2018.8.28+commit.3ba0cdec.mod.Emscripten.clang"
  },
  "schemaVersion": "2.0.1",
  "updatedAt": "2019-09-21T17:39:26.668Z"
}