{
  "contractName": "RingGame",
  "abi": [
    {
      "constant": true,
      "inputs": [
        {
          "name": "",
          "type": "uint256"
        }
      ],
      "name": "messages",
      "outputs": [
        {
          "name": "sender",
          "type": "address"
        },
        {
          "name": "message",
          "type": "string"
        }
      ],
      "payable": false,
      "stateMutability": "view",
      "type": "function"
    },
    {
      "constant": true,
      "inputs": [],
      "name": "time",
      "outputs": [
        {
          "name": "",
          "type": "uint256"
        }
      ],
      "payable": false,
      "stateMutability": "view",
      "type": "function"
    },
    {
      "constant": true,
      "inputs": [],
      "name": "length",
      "outputs": [
        {
          "name": "",
          "type": "uint256"
        }
      ],
      "payable": false,
      "stateMutability": "view",
      "type": "function"
    },
    {
      "constant": true,
      "inputs": [
        {
          "name": "",
          "type": "uint256"
        }
      ],
      "name": "bets",
      "outputs": [
        {
          "name": "betType",
          "type": "uint256"
        },
        {
          "name": "player",
          "type": "address"
        },
        {
          "name": "value",
          "type": "uint256"
        }
      ],
      "payable": false,
      "stateMutability": "view",
      "type": "function"
    },
    {
      "constant": true,
      "inputs": [
        {
          "name": "",
          "type": "uint256"
        }
      ],
      "name": "previous",
      "outputs": [
        {
          "name": "random",
          "type": "uint256"
        },
        {
          "name": "salt",
          "type": "bytes32"
        },
        {
          "name": "round",
          "type": "uint256"
        }
      ],
      "payable": false,
      "stateMutability": "view",
      "type": "function"
    },
    {
      "constant": true,
      "inputs": [],
      "name": "messageCount",
      "outputs": [
        {
          "name": "",
          "type": "uint256"
        }
      ],
      "payable": false,
      "stateMutability": "view",
      "type": "function"
    },
    {
      "constant": true,
      "inputs": [],
      "name": "random",
      "outputs": [
        {
          "name": "",
          "type": "uint256"
        }
      ],
      "payable": false,
      "stateMutability": "view",
      "type": "function"
    },
    {
      "constant": true,
      "inputs": [
        {
          "name": "",
          "type": "address"
        },
        {
          "name": "",
          "type": "uint256"
        }
      ],
      "name": "myBets",
      "outputs": [
        {
          "name": "betType",
          "type": "uint256"
        },
        {
          "name": "value",
          "type": "uint256"
        },
        {
          "name": "timestamp",
          "type": "uint256"
        },
        {
          "name": "round",
          "type": "uint256"
        }
      ],
      "payable": false,
      "stateMutability": "view",
      "type": "function"
    },
    {
      "constant": true,
      "inputs": [],
      "name": "salt",
      "outputs": [
        {
          "name": "",
          "type": "bytes32"
        }
      ],
      "payable": false,
      "stateMutability": "view",
      "type": "function"
    },
    {
      "constant": true,
      "inputs": [],
      "name": "previousCount",
      "outputs": [
        {
          "name": "",
          "type": "uint256"
        }
      ],
      "payable": false,
      "stateMutability": "view",
      "type": "function"
    },
    {
      "constant": true,
      "inputs": [],
      "name": "hashval",
      "outputs": [
        {
          "name": "",
          "type": "bytes32"
        }
      ],
      "payable": false,
      "stateMutability": "view",
      "type": "function"
    },
    {
      "inputs": [],
      "payable": false,
      "stateMutability": "nonpayable",
      "type": "constructor"
    },
    {
      "anonymous": false,
      "inputs": [
        {
          "indexed": false,
          "name": "player",
          "type": "address"
        },
        {
          "indexed": false,
          "name": "amount",
          "type": "uint256"
        }
      ],
      "name": "NewBetTwo",
      "type": "event"
    },
    {
      "anonymous": false,
      "inputs": [
        {
          "indexed": false,
          "name": "player",
          "type": "address"
        },
        {
          "indexed": false,
          "name": "amount",
          "type": "uint256"
        }
      ],
      "name": "NewBetThree",
      "type": "event"
    },
    {
      "anonymous": false,
      "inputs": [
        {
          "indexed": false,
          "name": "player",
          "type": "address"
        },
        {
          "indexed": false,
          "name": "amount",
          "type": "uint256"
        }
      ],
      "name": "NewBetFive",
      "type": "event"
    },
    {
      "anonymous": false,
      "inputs": [
        {
          "indexed": false,
          "name": "player",
          "type": "address"
        },
        {
          "indexed": false,
          "name": "amount",
          "type": "uint256"
        }
      ],
      "name": "NewBetFifty",
      "type": "event"
    },
    {
      "anonymous": false,
      "inputs": [
        {
          "indexed": false,
          "name": "time",
          "type": "uint256"
        }
      ],
      "name": "PlayGame",
      "type": "event"
    },
    {
      "anonymous": false,
      "inputs": [
        {
          "indexed": false,
          "name": "time",
          "type": "uint256"
        }
      ],
      "name": "StopGame",
      "type": "event"
    },
    {
      "anonymous": false,
      "inputs": [
        {
          "indexed": false,
          "name": "sender",
          "type": "address"
        },
        {
          "indexed": false,
          "name": "message",
          "type": "string"
        }
      ],
      "name": "MessageSent",
      "type": "event"
    },
    {
      "constant": false,
      "inputs": [],
      "name": "betTwo",
      "outputs": [],
      "payable": true,
      "stateMutability": "payable",
      "type": "function"
    },
    {
      "constant": false,
      "inputs": [],
      "name": "betThree",
      "outputs": [],
      "payable": true,
      "stateMutability": "payable",
      "type": "function"
    },
    {
      "constant": false,
      "inputs": [],
      "name": "betFive",
      "outputs": [],
      "payable": true,
      "stateMutability": "payable",
      "type": "function"
    },
    {
      "constant": false,
      "inputs": [],
      "name": "betFifty",
      "outputs": [],
      "payable": true,
      "stateMutability": "payable",
      "type": "function"
    },
    {
      "constant": false,
      "inputs": [],
      "name": "play",
      "outputs": [
        {
          "name": "",
          "type": "uint256"
        }
      ],
      "payable": false,
      "stateMutability": "nonpayable",
      "type": "function"
    },
    {
      "constant": true,
      "inputs": [],
      "name": "betLenght",
      "outputs": [
        {
          "name": "",
          "type": "uint256"
        }
      ],
      "payable": false,
      "stateMutability": "view",
      "type": "function"
    },
    {
      "constant": false,
      "inputs": [
        {
          "name": "_type",
          "type": "uint256"
        }
      ],
      "name": "stop",
      "outputs": [],
      "payable": true,
      "stateMutability": "payable",
      "type": "function"
    },
    {
      "constant": true,
      "inputs": [
        {
          "name": "user",
          "type": "address"
        }
      ],
      "name": "getLength",
      "outputs": [
        {
          "name": "",
          "type": "uint256"
        }
      ],
      "payable": false,
      "stateMutability": "view",
      "type": "function"
    },
    {
      "constant": false,
      "inputs": [
        {
          "name": "b",
          "type": "string"
        }
      ],
      "name": "sendMessage",
      "outputs": [],
      "payable": false,
      "stateMutability": "nonpayable",
      "type": "function"
    }
  ],
  "bytecode": "0x60806040526002805560038055600560045560326005556040805190810160405280600a81526020017f38765133583553746f59000000000000000000000000000000000000000000008152506008908051906020019062000063929190620000ca565b506000600e556000600f553480156200007b57600080fd5b504260008190555033600160006101000a81548173ffffffffffffffffffffffffffffffffffffffff021916908373ffffffffffffffffffffffffffffffffffffffff16021790555062000179565b828054600181600116156101000203166002900490600052602060002090601f016020900481019282601f106200010d57805160ff19168380011785556200013e565b828001600101855582156200013e579182015b828111156200013d57825182559160200191906001019062000120565b5b5090506200014d919062000151565b5090565b6200017691905b808211156200017257600081600090555060010162000158565b5090565b90565b611a2480620001896000396000f300608060405260043610610112576000357c0100000000000000000000000000000000000000000000000000000000900463ffffffff1680630d80fefd1461011757806316ada547146101f05780631f7b6d321461021b57806322af00fa146102465780633c311f3c146102c15780633dbcc8d114610318578063469c811014610343578063593feacf146103ac5780635ec01e4d146103b65780636299f8cf146103e15780637f9b2de914610401578063914225501461047757806393e84cd9146104815780639dabb914146104ac578063bfa0b133146104b6578063c1f00393146104e9578063c9f9b923146104f3578063dd59d2e11461051e578063eb00172914610551578063fe611a071461057c575b600080fd5b34801561012357600080fd5b50610142600480360381019080803590602001909291905050506105d3565b604051808373ffffffffffffffffffffffffffffffffffffffff1673ffffffffffffffffffffffffffffffffffffffff16815260200180602001828103825283818151815260200191508051906020019080838360005b838110156101b4578082015181840152602081019050610199565b50505050905090810190601f1680156101e15780820380516001836020036101000a031916815260200191505b50935050505060405180910390f35b3480156101fc57600080fd5b506102056106af565b6040518082815260200191505060405180910390f35b34801561022757600080fd5b506102306106b5565b6040518082815260200191505060405180910390f35b34801561025257600080fd5b50610271600480360381019080803590602001909291905050506106bb565b604051808481526020018373ffffffffffffffffffffffffffffffffffffffff1673ffffffffffffffffffffffffffffffffffffffff168152602001828152602001935050505060405180910390f35b3480156102cd57600080fd5b506102ec60048036038101908080359060200190929190505050610714565b604051808481526020018360001916600019168152602001828152602001935050505060405180910390f35b34801561032457600080fd5b5061032d61073e565b6040518082815260200191505060405180910390f35b34801561034f57600080fd5b506103aa600480360381019080803590602001908201803590602001908080601f0160208091040260200160405190810160405280939291908181526020018383808284378201915050505050509192919290505050610744565b005b6103b46108cf565b005b3480156103c257600080fd5b506103cb610b2f565b6040518082815260200191505060405180910390f35b6103ff60048036038101908080359060200190929190505050610b35565b005b34801561040d57600080fd5b5061044c600480360381019080803573ffffffffffffffffffffffffffffffffffffffff16906020019092919080359060200190929190505050610cf8565b6040518085815260200184815260200183815260200182815260200194505050505060405180910390f35b61047f610d44565b005b34801561048d57600080fd5b50610496610fa4565b6040518082815260200191505060405180910390f35b6104b46113a0565b005b3480156104c257600080fd5b506104cb611600565b60405180826000191660001916815260200191505060405180910390f35b6104f1611606565b005b3480156104ff57600080fd5b50610508611866565b6040518082815260200191505060405180910390f35b34801561052a57600080fd5b5061053361186c565b60405180826000191660001916815260200191505060405180910390f35b34801561055d57600080fd5b50610566611872565b6040518082815260200191505060405180910390f35b34801561058857600080fd5b506105bd600480360381019080803573ffffffffffffffffffffffffffffffffffffffff16906020019092919050505061187f565b6040518082815260200191505060405180910390f35b600d6020528060005260406000206000915090508060000160009054906101000a900473ffffffffffffffffffffffffffffffffffffffff1690806001018054600181600116156101000203166002900480601f0160208091040260200160405190810160405280929190818152602001828054600181600116156101000203166002900480156106a55780601f1061067a576101008083540402835291602001916106a5565b820191906000526020600020905b81548152906001019060200180831161068857829003601f168201915b5050505050905082565b60005481565b60075481565b6010818154811015156106ca57fe5b90600052602060002090600302016000915090508060000154908060010160009054906101000a900473ffffffffffffffffffffffffffffffffffffffff16908060020154905083565b600c6020528060005260406000206000915090508060000154908060010154908060020154905083565b600e5481565b6001600e6000828254019250508190555060408051908101604052803373ffffffffffffffffffffffffffffffffffffffff16815260200182815250600d6000600e54815260200190815260200160002060008201518160000160006101000a81548173ffffffffffffffffffffffffffffffffffffffff021916908373ffffffffffffffffffffffffffffffffffffffff16021790555060208201518160010190805190602001906107f89291906118cb565b509050507f0d7fccda06d6eb51c23cbd16d49b9b3f3ebafb002dba1b074895cbb35d0e81303382604051808373ffffffffffffffffffffffffffffffffffffffff1673ffffffffffffffffffffffffffffffffffffffff16815260200180602001828103825283818151815260200191508051906020019080838360005b83811015610891578082015181840152602081019050610876565b50505050905090810190601f1680156108be5780820380516001836020036101000a031916815260200191505b50935050505060405180910390a150565b6298968034101515156108e157600080fd5b6010606060405190810160405280603281526020013373ffffffffffffffffffffffffffffffffffffffff16815260200134815250908060018154018082558091505090600182039060005260206000209060030201600090919290919091506000820151816000015560208201518160010160006101000a81548173ffffffffffffffffffffffffffffffffffffffff021916908373ffffffffffffffffffffffffffffffffffffffff16021790555060408201518160020155505050600160009054906101000a900473ffffffffffffffffffffffffffffffffffffffff1673ffffffffffffffffffffffffffffffffffffffff166108fc349081150290604051600060405180830381858888f19350505050158015610a07573d6000803e3d6000fd5b507f9b93b9feee7762992c2ad1bc3134a273b95544623d8382820423fe19d6712cca3334604051808373ffffffffffffffffffffffffffffffffffffffff1673ffffffffffffffffffffffffffffffffffffffff1681526020018281526020019250505060405180910390a1600b60003373ffffffffffffffffffffffffffffffffffffffff1673ffffffffffffffffffffffffffffffffffffffff16815260200190815260200160002060806040519081016040528060328152602001348152602001428152602001600f548152509080600181540180825580915050906001820390600052602060002090600402016000909192909190915060008201518160000155602082015181600101556040820151816002015560608201518160030155505050565b60065481565b6000600160009054906101000a900473ffffffffffffffffffffffffffffffffffffffff1673ffffffffffffffffffffffffffffffffffffffff163373ffffffffffffffffffffffffffffffffffffffff16141515610b9357600080fd5b600090505b601080549050811015610ca45781601082815481101515610bb557fe5b9060005260206000209060030201600001541415610c9757601081815481101515610bdc57fe5b906000526020600020906003020160010160009054906101000a900473ffffffffffffffffffffffffffffffffffffffff1673ffffffffffffffffffffffffffffffffffffffff166108fc601083815481101515610c3657fe5b906000526020600020906003020160000154601084815481101515610c5757fe5b906000526020600020906003020160020154029081150290604051600060405180830381858888f19350505050158015610c95573d6000803e3d6000fd5b505b8080600101915050610b98565b6000601081610cb3919061194b565b50426000819055507fb0f6e393e836b3fa2360731681f20187440362cd97fb998ae3dbbb5ad4ecb2a36000546040518082815260200191505060405180910390a15050565b600b60205281600052604060002081815481101515610d1357fe5b9060005260206000209060040201600091509150508060000154908060010154908060020154908060030154905084565b629896803410151515610d5657600080fd5b6010606060405190810160405280600281526020013373ffffffffffffffffffffffffffffffffffffffff16815260200134815250908060018154018082558091505090600182039060005260206000209060030201600090919290919091506000820151816000015560208201518160010160006101000a81548173ffffffffffffffffffffffffffffffffffffffff021916908373ffffffffffffffffffffffffffffffffffffffff16021790555060408201518160020155505050600160009054906101000a900473ffffffffffffffffffffffffffffffffffffffff1673ffffffffffffffffffffffffffffffffffffffff166108fc349081150290604051600060405180830381858888f19350505050158015610e7c573d6000803e3d6000fd5b507fdd92187a14de7740ac2c0b5abb8bdeb3f9c7b3337c2a76b834e4e0d3530c19e53334604051808373ffffffffffffffffffffffffffffffffffffffff1673ffffffffffffffffffffffffffffffffffffffff1681526020018281526020019250505060405180910390a1600b60003373ffffffffffffffffffffffffffffffffffffffff1673ffffffffffffffffffffffffffffffffffffffff16815260200190815260200160002060806040519081016040528060028152602001348152602001428152602001600f548152509080600181540180825580915050906001820390600052602060002090600402016000909192909190915060008201518160000155602082015181600101556040820151816002015560608201518160030155505050565b6000806000600160009054906101000a900473ffffffffffffffffffffffffffffffffffffffff1673ffffffffffffffffffffffffffffffffffffffff163373ffffffffffffffffffffffffffffffffffffffff1614151561100557600080fd5b449150429050603681836008604051602001808481526020018381526020018280546001816001161561010002031660029004801561107b5780601f1061105957610100808354040283529182019161107b565b820191906000526020600020905b815481529060010190602001808311611067575b505093505050506040516020818303038152906040526040518082805190602001908083835b6020831015156110c657805182526020820191506020810190506020830392506110a1565b6001836020036101000a03801982511681845116808217855250505050505090500191505060405180910390206001900481151561110057fe5b0660ff1660068190555060016006600082825401925050819055508082600860405160200180848152602001838152602001828054600181600116156101000203166002900480156111895780601f10611167576101008083540402835291820191611189565b820191906000526020600020905b815481529060010190602001808311611175575b505093505050506040516020818303038152906040526040518082805190602001908083835b6020831015156111d457805182526020820191506020810190506020830392506111af565b6001836020036101000a0380198251168184511680821785525050505050509050019150506040518091039020600a81600019169055506002600a54600654604051602001808360001916600019168152602001828152602001925050506040516020818303038152906040526040518082805190602001908083835b6020831015156112765780518252602082019150602081019050602083039250611251565b6001836020036101000a0380198251168184511680821785525050505050509050019150506020604051808303816000865af11580156112ba573d6000803e3d6000fd5b5050506040513d60208110156112cf57600080fd5b8101908080519060200190929190505050600981600019169055506001600f600082825401925050819055507ff64d796e649654152635006c0e38eb3d2ec31920f3e6fb38f14aeb20c22c16896006546040518082815260200191505060405180910390a16060604051908101604052806006548152602001600a54600019168152602001600f54815250600c6000600f5481526020019081526020016000206000820151816000015560208201518160010190600019169055604082015181600201559050506006549250505090565b6298968034101515156113b257600080fd5b6010606060405190810160405280600381526020013373ffffffffffffffffffffffffffffffffffffffff16815260200134815250908060018154018082558091505090600182039060005260206000209060030201600090919290919091506000820151816000015560208201518160010160006101000a81548173ffffffffffffffffffffffffffffffffffffffff021916908373ffffffffffffffffffffffffffffffffffffffff16021790555060408201518160020155505050600160009054906101000a900473ffffffffffffffffffffffffffffffffffffffff1673ffffffffffffffffffffffffffffffffffffffff166108fc349081150290604051600060405180830381858888f193505050501580156114d8573d6000803e3d6000fd5b507feecdfce47f3ba6fac5cb5a8826eb8e71bce2a86ad6b9950b9f2553aa428533af3334604051808373ffffffffffffffffffffffffffffffffffffffff1673ffffffffffffffffffffffffffffffffffffffff1681526020018281526020019250505060405180910390a1600b60003373ffffffffffffffffffffffffffffffffffffffff1673ffffffffffffffffffffffffffffffffffffffff16815260200190815260200160002060806040519081016040528060038152602001348152602001428152602001600f548152509080600181540180825580915050906001820390600052602060002090600402016000909192909190915060008201518160000155602082015181600101556040820151816002015560608201518160030155505050565b600a5481565b62989680341015151561161857600080fd5b6010606060405190810160405280600581526020013373ffffffffffffffffffffffffffffffffffffffff16815260200134815250908060018154018082558091505090600182039060005260206000209060030201600090919290919091506000820151816000015560208201518160010160006101000a81548173ffffffffffffffffffffffffffffffffffffffff021916908373ffffffffffffffffffffffffffffffffffffffff16021790555060408201518160020155505050600160009054906101000a900473ffffffffffffffffffffffffffffffffffffffff1673ffffffffffffffffffffffffffffffffffffffff166108fc349081150290604051600060405180830381858888f1935050505015801561173e573d6000803e3d6000fd5b507fac4d4313a1c1237abe16ef6286f78d3dd3f91c1c25b780bc6f483b2ba06279c03334604051808373ffffffffffffffffffffffffffffffffffffffff1673ffffffffffffffffffffffffffffffffffffffff1681526020018281526020019250505060405180910390a1600b60003373ffffffffffffffffffffffffffffffffffffffff1673ffffffffffffffffffffffffffffffffffffffff16815260200190815260200160002060806040519081016040528060058152602001348152602001428152602001600f548152509080600181540180825580915050906001820390600052602060002090600402016000909192909190915060008201518160000155602082015181600101556040820151816002015560608201518160030155505050565b600f5481565b60095481565b6000601080549050905090565b6000600b60008373ffffffffffffffffffffffffffffffffffffffff1673ffffffffffffffffffffffffffffffffffffffff168152602001908152602001600020805490509050919050565b828054600181600116156101000203166002900490600052602060002090601f016020900481019282601f1061190c57805160ff191683800117855561193a565b8280016001018555821561193a579182015b8281111561193957825182559160200191906001019061191e565b5b509050611947919061197d565b5090565b8154818355818111156119785760030281600302836000526020600020918201910161197791906119a2565b5b505050565b61199f91905b8082111561199b576000816000905550600101611983565b5090565b90565b6119f591905b808211156119f1576000808201600090556001820160006101000a81549073ffffffffffffffffffffffffffffffffffffffff02191690556002820160009055506003016119a8565b5090565b905600a165627a7a72305820e75371abd69307b57293200761351853931e6f534c54b07083e3e6e6e3cfbee30029",
  "source": "pragma solidity ^0.4.23;\n\n\ncontract RingGame {\n    \n    uint public time;\n    address owner;\n    bool allowed;\n    uint two = 2;\n    uint three = 3;\n    uint five = 5;\n    uint fifty = 50;\n    uint public random;\n    uint public length;\n    string secretKey = \"8vQ3X5StoY\";\n    bytes32 public hashval;\n    bytes32 public salt;\n    mapping(address => MyBets[]) public myBets;\n    mapping(uint256 => PreviousGames) public previous;\n    mapping(uint256 => Message) public messages;\n    uint256 public messageCount = 0;\n    uint256 public previousCount = 0;\n\n    struct Bet {\n        uint betType;\n        address player;\n        uint value;\n    }\n    struct MyBets {\n        uint betType;\n        uint value;\n        uint256 timestamp;\n        uint256 round;\n    }\n    \n    struct PreviousGames{\n        uint random;\n        bytes32 salt;\n        uint256 round;\n    }\n\n    struct Message{\n        address sender;\n        string message;\n    }\n    \n    Bet[] public bets;\n    \n    event NewBetTwo(address player, uint amount);\n    event NewBetThree(address player, uint amount);\n    event NewBetFive(address player, uint amount);\n    event NewBetFifty(address player, uint amount);\n    event PlayGame(uint time);\n    event StopGame(uint time);\n    event MessageSent(address sender, string message);\n    \n    modifier OnlyOwner(){\n        require(msg.sender == owner);\n        _;\n    }\n    \n    constructor() public {\n        time = now;\n        owner = msg.sender;\n    }\n    \n    function betTwo() public payable {\n        require(msg.value >= 10 trx);\n        bets.push(Bet({\n            betType : 2,\n            player : msg.sender,\n            value : msg.value\n        }));\n        owner.transfer(msg.value);\n        emit NewBetTwo(msg.sender, msg.value);\n        myBets[msg.sender].push(MyBets({\n            betType: 2,\n            value: msg.value,\n            timestamp: now,\n            round: previousCount\n        }));\n    }\n    \n     function betThree() public payable {\n        require(msg.value >= 10 trx);\n        bets.push(Bet({\n            betType : 3,\n            player : msg.sender,\n            value : msg.value\n        }));\n        owner.transfer(msg.value);\n        emit NewBetThree(msg.sender, msg.value);\n        myBets[msg.sender].push(MyBets({\n            betType: 3,\n            value: msg.value,\n            timestamp: now,\n            round: previousCount\n        }));\n        \n    }\n    \n     function betFive() public payable {\n        require(msg.value >= 10 trx);\n        bets.push(Bet({\n            betType : 5,\n            player : msg.sender,\n            value : msg.value\n        }));\n        owner.transfer(msg.value);\n        emit NewBetFive(msg.sender, msg.value);\n        myBets[msg.sender].push(MyBets({\n            betType: 5,\n            value: msg.value,\n            timestamp: now,\n            round: previousCount\n        }));\n        \n    }\n    \n     function betFifty() public payable {\n        require(msg.value >= 10 trx);\n        bets.push(Bet({\n            betType : 50,\n            player : msg.sender,\n            value : msg.value\n        }));\n        owner.transfer(msg.value);\n        \n        emit NewBetFifty(msg.sender, msg.value);\n        myBets[msg.sender].push(MyBets({\n            betType: 50,\n            value: msg.value,\n            timestamp: now,\n            round: previousCount\n        }));\n        \n    }\n    \n    function play() public OnlyOwner returns (uint) {\n        uint256 diff = block.difficulty;\n        uint256 timestamp = now;\n       \n        random = uint8(uint256(keccak256(abi.encodePacked(timestamp,diff, secretKey)))%54);\n        random += 1;\n        salt = keccak256(abi.encodePacked(timestamp,diff, secretKey));\n        hashval = sha256(abi.encodePacked(salt,random));\n        previousCount += 1;\n        emit PlayGame(random);\n        previous[previousCount] = PreviousGames(random, salt, previousCount);\n        return random;\n   }\n\n   function betLenght() public view returns (uint){\n       return bets.length;\n   }\n\n\n    function stop(uint _type) public payable OnlyOwner{\n        for(uint256 i = 0; i < bets.length; i++){\n           if(bets[i].betType == _type){\n               bets[i].player.transfer(bets[i].value*bets[i].betType);\n           } \n        }\n        \n        bets.length = 0;\n        time = now;\n        emit StopGame(time);\n    }\n\n    function getLength(address user) public view returns(uint256){\n        return myBets[user].length;\n    }\n    \n    function sendMessage(string b){\n        messageCount += 1;\n        messages[messageCount] = Message(msg.sender, b);\n        emit MessageSent(msg.sender, b);\n    }\n\n}",
  "sourcePath": "/home/oscar/ring/contracts/RingGame.sol",
  "compiler": {
    "name": "solc",
    "version": "0.4.24-develop.2018.8.28+commit.3ba0cdec.mod.Emscripten.clang"
  },
  "schemaVersion": "2.0.1",
  "updatedAt": "2019-09-24T15:33:54.758Z"
}