{
  "contractName": "RingGame",
  "abi": [
    {
      "constant": true,
      "inputs": [
        {
          "name": "",
          "type": "uint256"
        }
      ],
      "name": "messages",
      "outputs": [
        {
          "name": "sender",
          "type": "address"
        },
        {
          "name": "message",
          "type": "string"
        },
        {
          "name": "timestamp",
          "type": "uint256"
        }
      ],
      "payable": false,
      "stateMutability": "view",
      "type": "function"
    },
    {
      "constant": true,
      "inputs": [],
      "name": "time",
      "outputs": [
        {
          "name": "",
          "type": "uint256"
        }
      ],
      "payable": false,
      "stateMutability": "view",
      "type": "function"
    },
    {
      "constant": true,
      "inputs": [],
      "name": "length",
      "outputs": [
        {
          "name": "",
          "type": "uint256"
        }
      ],
      "payable": false,
      "stateMutability": "view",
      "type": "function"
    },
    {
      "constant": true,
      "inputs": [
        {
          "name": "",
          "type": "uint256"
        }
      ],
      "name": "bets",
      "outputs": [
        {
          "name": "betType",
          "type": "uint256"
        },
        {
          "name": "player",
          "type": "address"
        },
        {
          "name": "value",
          "type": "uint256"
        }
      ],
      "payable": false,
      "stateMutability": "view",
      "type": "function"
    },
    {
      "constant": true,
      "inputs": [
        {
          "name": "",
          "type": "uint256"
        }
      ],
      "name": "previous",
      "outputs": [
        {
          "name": "random",
          "type": "uint256"
        },
        {
          "name": "salt",
          "type": "bytes32"
        },
        {
          "name": "round",
          "type": "uint256"
        }
      ],
      "payable": false,
      "stateMutability": "view",
      "type": "function"
    },
    {
      "constant": true,
      "inputs": [],
      "name": "messageCount",
      "outputs": [
        {
          "name": "",
          "type": "uint256"
        }
      ],
      "payable": false,
      "stateMutability": "view",
      "type": "function"
    },
    {
      "constant": true,
      "inputs": [],
      "name": "random",
      "outputs": [
        {
          "name": "",
          "type": "uint256"
        }
      ],
      "payable": false,
      "stateMutability": "view",
      "type": "function"
    },
    {
      "constant": true,
      "inputs": [
        {
          "name": "",
          "type": "address"
        },
        {
          "name": "",
          "type": "uint256"
        }
      ],
      "name": "myBets",
      "outputs": [
        {
          "name": "betType",
          "type": "uint256"
        },
        {
          "name": "value",
          "type": "uint256"
        },
        {
          "name": "timestamp",
          "type": "uint256"
        },
        {
          "name": "round",
          "type": "uint256"
        }
      ],
      "payable": false,
      "stateMutability": "view",
      "type": "function"
    },
    {
      "constant": true,
      "inputs": [
        {
          "name": "",
          "type": "address"
        }
      ],
      "name": "users",
      "outputs": [
        {
          "name": "username",
          "type": "string"
        },
        {
          "name": "image",
          "type": "string"
        }
      ],
      "payable": false,
      "stateMutability": "view",
      "type": "function"
    },
    {
      "constant": true,
      "inputs": [],
      "name": "salt",
      "outputs": [
        {
          "name": "",
          "type": "bytes32"
        }
      ],
      "payable": false,
      "stateMutability": "view",
      "type": "function"
    },
    {
      "constant": true,
      "inputs": [],
      "name": "previousCount",
      "outputs": [
        {
          "name": "",
          "type": "uint256"
        }
      ],
      "payable": false,
      "stateMutability": "view",
      "type": "function"
    },
    {
      "constant": true,
      "inputs": [],
      "name": "hashval",
      "outputs": [
        {
          "name": "",
          "type": "bytes32"
        }
      ],
      "payable": false,
      "stateMutability": "view",
      "type": "function"
    },
    {
      "inputs": [],
      "payable": false,
      "stateMutability": "nonpayable",
      "type": "constructor"
    },
    {
      "anonymous": false,
      "inputs": [
        {
          "indexed": false,
          "name": "player",
          "type": "address"
        },
        {
          "indexed": false,
          "name": "amount",
          "type": "uint256"
        }
      ],
      "name": "NewBetTwo",
      "type": "event"
    },
    {
      "anonymous": false,
      "inputs": [
        {
          "indexed": false,
          "name": "player",
          "type": "address"
        },
        {
          "indexed": false,
          "name": "amount",
          "type": "uint256"
        }
      ],
      "name": "NewBetThree",
      "type": "event"
    },
    {
      "anonymous": false,
      "inputs": [
        {
          "indexed": false,
          "name": "player",
          "type": "address"
        },
        {
          "indexed": false,
          "name": "amount",
          "type": "uint256"
        }
      ],
      "name": "NewBetFive",
      "type": "event"
    },
    {
      "anonymous": false,
      "inputs": [
        {
          "indexed": false,
          "name": "player",
          "type": "address"
        },
        {
          "indexed": false,
          "name": "amount",
          "type": "uint256"
        }
      ],
      "name": "NewBetFifty",
      "type": "event"
    },
    {
      "anonymous": false,
      "inputs": [
        {
          "indexed": false,
          "name": "time",
          "type": "uint256"
        }
      ],
      "name": "PlayGame",
      "type": "event"
    },
    {
      "anonymous": false,
      "inputs": [
        {
          "indexed": false,
          "name": "time",
          "type": "uint256"
        }
      ],
      "name": "StopGame",
      "type": "event"
    },
    {
      "anonymous": false,
      "inputs": [
        {
          "indexed": false,
          "name": "sender",
          "type": "address"
        },
        {
          "indexed": false,
          "name": "message",
          "type": "string"
        },
        {
          "indexed": false,
          "name": "timestamp",
          "type": "uint256"
        }
      ],
      "name": "MessageSent",
      "type": "event"
    },
    {
      "constant": false,
      "inputs": [
        {
          "name": "username",
          "type": "string"
        }
      ],
      "name": "setUsername",
      "outputs": [],
      "payable": false,
      "stateMutability": "nonpayable",
      "type": "function"
    },
    {
      "constant": false,
      "inputs": [
        {
          "name": "avatar",
          "type": "string"
        }
      ],
      "name": "setAvatar",
      "outputs": [],
      "payable": false,
      "stateMutability": "nonpayable",
      "type": "function"
    },
    {
      "constant": false,
      "inputs": [],
      "name": "betTwo",
      "outputs": [],
      "payable": true,
      "stateMutability": "payable",
      "type": "function"
    },
    {
      "constant": false,
      "inputs": [],
      "name": "betThree",
      "outputs": [],
      "payable": true,
      "stateMutability": "payable",
      "type": "function"
    },
    {
      "constant": false,
      "inputs": [],
      "name": "betFive",
      "outputs": [],
      "payable": true,
      "stateMutability": "payable",
      "type": "function"
    },
    {
      "constant": false,
      "inputs": [],
      "name": "betFifty",
      "outputs": [],
      "payable": true,
      "stateMutability": "payable",
      "type": "function"
    },
    {
      "constant": false,
      "inputs": [],
      "name": "play",
      "outputs": [
        {
          "name": "",
          "type": "uint256"
        }
      ],
      "payable": false,
      "stateMutability": "nonpayable",
      "type": "function"
    },
    {
      "constant": true,
      "inputs": [],
      "name": "betLenght",
      "outputs": [
        {
          "name": "",
          "type": "uint256"
        }
      ],
      "payable": false,
      "stateMutability": "view",
      "type": "function"
    },
    {
      "constant": false,
      "inputs": [
        {
          "name": "_type",
          "type": "uint256"
        }
      ],
      "name": "stop",
      "outputs": [],
      "payable": true,
      "stateMutability": "payable",
      "type": "function"
    },
    {
      "constant": true,
      "inputs": [
        {
          "name": "user",
          "type": "address"
        }
      ],
      "name": "getLength",
      "outputs": [
        {
          "name": "",
          "type": "uint256"
        }
      ],
      "payable": false,
      "stateMutability": "view",
      "type": "function"
    },
    {
      "constant": false,
      "inputs": [
        {
          "name": "b",
          "type": "string"
        }
      ],
      "name": "sendMessage",
      "outputs": [],
      "payable": false,
      "stateMutability": "nonpayable",
      "type": "function"
    }
  ],
  "bytecode": "0x60806040526002805560038055600560045560326005556040805190810160405280600a81526020017f38765133583553746f59000000000000000000000000000000000000000000008152506008908051906020019062000063929190620000ca565b506000600f5560006010553480156200007b57600080fd5b504260008190555033600160006101000a81548173ffffffffffffffffffffffffffffffffffffffff021916908373ffffffffffffffffffffffffffffffffffffffff16021790555062000179565b828054600181600116156101000203166002900490600052602060002090601f016020900481019282601f106200010d57805160ff19168380011785556200013e565b828001600101855582156200013e579182015b828111156200013d57825182559160200191906001019062000120565b5b5090506200014d919062000151565b5090565b6200017691905b808211156200017257600081600090555060010162000158565b5090565b90565b611eed80620001896000396000f300608060405260043610610133576000357c0100000000000000000000000000000000000000000000000000000000900463ffffffff1680630d80fefd1461013857806316ada547146102185780631f7b6d321461024357806322af00fa1461026e5780633c311f3c146102e95780633dbcc8d114610340578063469c81101461036b578063593feacf146103d45780635ec01e4d146103de5780636299f8cf146104095780636ec5239f146104295780637f9b2de914610492578063914225501461050857806393e84cd9146105125780639dabb9141461053d578063a87430ba14610547578063bfa0b1331461066f578063c1f00393146106a2578063c9f9b923146106ac578063dd59d2e1146106d7578063eb0017291461070a578063ed59313a14610735578063fe611a071461079e575b600080fd5b34801561014457600080fd5b50610163600480360381019080803590602001909291905050506107f5565b604051808473ffffffffffffffffffffffffffffffffffffffff1673ffffffffffffffffffffffffffffffffffffffff16815260200180602001838152602001828103825284818151815260200191508051906020019080838360005b838110156101db5780820151818401526020810190506101c0565b50505050905090810190601f1680156102085780820380516001836020036101000a031916815260200191505b5094505050505060405180910390f35b34801561022457600080fd5b5061022d6108d7565b6040518082815260200191505060405180910390f35b34801561024f57600080fd5b506102586108dd565b6040518082815260200191505060405180910390f35b34801561027a57600080fd5b50610299600480360381019080803590602001909291905050506108e3565b604051808481526020018373ffffffffffffffffffffffffffffffffffffffff1673ffffffffffffffffffffffffffffffffffffffff168152602001828152602001935050505060405180910390f35b3480156102f557600080fd5b506103146004803603810190808035906020019092919050505061093c565b604051808481526020018360001916600019168152602001828152602001935050505060405180910390f35b34801561034c57600080fd5b50610355610966565b6040518082815260200191505060405180910390f35b34801561037757600080fd5b506103d2600480360381019080803590602001908201803590602001908080601f016020809104026020016040519081016040528093929190818152602001838380828437820191505050505050919291929050505061096c565b005b6103dc610b10565b005b3480156103ea57600080fd5b506103f3610d70565b6040518082815260200191505060405180910390f35b61042760048036038101908080359060200190929190505050610d76565b005b34801561043557600080fd5b50610490600480360381019080803590602001908201803590602001908080601f0160208091040260200160405190810160405280939291908181526020018383808284378201915050505050509192919290505050610f39565b005b34801561049e57600080fd5b506104dd600480360381019080803573ffffffffffffffffffffffffffffffffffffffff16906020019092919080359060200190929190505050610f93565b6040518085815260200184815260200183815260200182815260200194505050505060405180910390f35b610510610fdf565b005b34801561051e57600080fd5b5061052761123f565b6040518082815260200191505060405180910390f35b61054561163b565b005b34801561055357600080fd5b50610588600480360381019080803573ffffffffffffffffffffffffffffffffffffffff16906020019092919050505061189b565b604051808060200180602001838103835285818151815260200191508051906020019080838360005b838110156105cc5780820151818401526020810190506105b1565b50505050905090810190601f1680156105f95780820380516001836020036101000a031916815260200191505b50838103825284818151815260200191508051906020019080838360005b83811015610632578082015181840152602081019050610617565b50505050905090810190601f16801561065f5780820380516001836020036101000a031916815260200191505b5094505050505060405180910390f35b34801561067b57600080fd5b506106846119ef565b60405180826000191660001916815260200191505060405180910390f35b6106aa6119f5565b005b3480156106b857600080fd5b506106c1611c55565b6040518082815260200191505060405180910390f35b3480156106e357600080fd5b506106ec611c5b565b60405180826000191660001916815260200191505060405180910390f35b34801561071657600080fd5b5061071f611c61565b6040518082815260200191505060405180910390f35b34801561074157600080fd5b5061079c600480360381019080803590602001908201803590602001908080601f0160208091040260200160405190810160405280939291908181526020018383808284378201915050505050509192919290505050611c6e565b005b3480156107aa57600080fd5b506107df600480360381019080803573ffffffffffffffffffffffffffffffffffffffff169060200190929190505050611cc8565b6040518082815260200191505060405180910390f35b600d6020528060005260406000206000915090508060000160009054906101000a900473ffffffffffffffffffffffffffffffffffffffff1690806001018054600181600116156101000203166002900480601f0160208091040260200160405190810160405280929190818152602001828054600181600116156101000203166002900480156108c75780601f1061089c576101008083540402835291602001916108c7565b820191906000526020600020905b8154815290600101906020018083116108aa57829003601f168201915b5050505050908060020154905083565b60005481565b60075481565b6011818154811015156108f257fe5b90600052602060002090600302016000915090508060000154908060010160009054906101000a900473ffffffffffffffffffffffffffffffffffffffff16908060020154905083565b600c6020528060005260406000206000915090508060000154908060010154908060020154905083565b600f5481565b6001600f600082825401925050819055506060604051908101604052803373ffffffffffffffffffffffffffffffffffffffff16815260200182815260200142815250600d6000600f54815260200190815260200160002060008201518160000160006101000a81548173ffffffffffffffffffffffffffffffffffffffff021916908373ffffffffffffffffffffffffffffffffffffffff1602179055506020820151816001019080519060200190610a27929190611d14565b50604082015181600201559050507f4816bdd3b9d39acdd4da0ae7412d5523081e916c6a56e481063e475b86ef7c5b338242604051808473ffffffffffffffffffffffffffffffffffffffff1673ffffffffffffffffffffffffffffffffffffffff16815260200180602001838152602001828103825284818151815260200191508051906020019080838360005b83811015610ad1578082015181840152602081019050610ab6565b50505050905090810190601f168015610afe5780820380516001836020036101000a031916815260200191505b5094505050505060405180910390a150565b629896803410151515610b2257600080fd5b6011606060405190810160405280603281526020013373ffffffffffffffffffffffffffffffffffffffff16815260200134815250908060018154018082558091505090600182039060005260206000209060030201600090919290919091506000820151816000015560208201518160010160006101000a81548173ffffffffffffffffffffffffffffffffffffffff021916908373ffffffffffffffffffffffffffffffffffffffff16021790555060408201518160020155505050600160009054906101000a900473ffffffffffffffffffffffffffffffffffffffff1673ffffffffffffffffffffffffffffffffffffffff166108fc349081150290604051600060405180830381858888f19350505050158015610c48573d6000803e3d6000fd5b507f9b93b9feee7762992c2ad1bc3134a273b95544623d8382820423fe19d6712cca3334604051808373ffffffffffffffffffffffffffffffffffffffff1673ffffffffffffffffffffffffffffffffffffffff1681526020018281526020019250505060405180910390a1600b60003373ffffffffffffffffffffffffffffffffffffffff1673ffffffffffffffffffffffffffffffffffffffff168152602001908152602001600020608060405190810160405280603281526020013481526020014281526020016010548152509080600181540180825580915050906001820390600052602060002090600402016000909192909190915060008201518160000155602082015181600101556040820151816002015560608201518160030155505050565b60065481565b6000600160009054906101000a900473ffffffffffffffffffffffffffffffffffffffff1673ffffffffffffffffffffffffffffffffffffffff163373ffffffffffffffffffffffffffffffffffffffff16141515610dd457600080fd5b600090505b601180549050811015610ee55781601182815481101515610df657fe5b9060005260206000209060030201600001541415610ed857601181815481101515610e1d57fe5b906000526020600020906003020160010160009054906101000a900473ffffffffffffffffffffffffffffffffffffffff1673ffffffffffffffffffffffffffffffffffffffff166108fc601183815481101515610e7757fe5b906000526020600020906003020160000154601184815481101515610e9857fe5b906000526020600020906003020160020154029081150290604051600060405180830381858888f19350505050158015610ed6573d6000803e3d6000fd5b505b8080600101915050610dd9565b6000601181610ef49190611d94565b50426000819055507fb0f6e393e836b3fa2360731681f20187440362cd97fb998ae3dbbb5ad4ecb2a36000546040518082815260200191505060405180910390a15050565b80600e60003373ffffffffffffffffffffffffffffffffffffffff1673ffffffffffffffffffffffffffffffffffffffff1681526020019081526020016000206001019080519060200190610f8f929190611dc6565b5050565b600b60205281600052604060002081815481101515610fae57fe5b9060005260206000209060040201600091509150508060000154908060010154908060020154908060030154905084565b629896803410151515610ff157600080fd5b6011606060405190810160405280600281526020013373ffffffffffffffffffffffffffffffffffffffff16815260200134815250908060018154018082558091505090600182039060005260206000209060030201600090919290919091506000820151816000015560208201518160010160006101000a81548173ffffffffffffffffffffffffffffffffffffffff021916908373ffffffffffffffffffffffffffffffffffffffff16021790555060408201518160020155505050600160009054906101000a900473ffffffffffffffffffffffffffffffffffffffff1673ffffffffffffffffffffffffffffffffffffffff166108fc349081150290604051600060405180830381858888f19350505050158015611117573d6000803e3d6000fd5b507fdd92187a14de7740ac2c0b5abb8bdeb3f9c7b3337c2a76b834e4e0d3530c19e53334604051808373ffffffffffffffffffffffffffffffffffffffff1673ffffffffffffffffffffffffffffffffffffffff1681526020018281526020019250505060405180910390a1600b60003373ffffffffffffffffffffffffffffffffffffffff1673ffffffffffffffffffffffffffffffffffffffff168152602001908152602001600020608060405190810160405280600281526020013481526020014281526020016010548152509080600181540180825580915050906001820390600052602060002090600402016000909192909190915060008201518160000155602082015181600101556040820151816002015560608201518160030155505050565b6000806000600160009054906101000a900473ffffffffffffffffffffffffffffffffffffffff1673ffffffffffffffffffffffffffffffffffffffff163373ffffffffffffffffffffffffffffffffffffffff161415156112a057600080fd5b44915042905060368183600860405160200180848152602001838152602001828054600181600116156101000203166002900480156113165780601f106112f4576101008083540402835291820191611316565b820191906000526020600020905b815481529060010190602001808311611302575b505093505050506040516020818303038152906040526040518082805190602001908083835b602083101515611361578051825260208201915060208101905060208303925061133c565b6001836020036101000a03801982511681845116808217855250505050505090500191505060405180910390206001900481151561139b57fe5b0660ff1660068190555060016006600082825401925050819055508082600860405160200180848152602001838152602001828054600181600116156101000203166002900480156114245780601f10611402576101008083540402835291820191611424565b820191906000526020600020905b815481529060010190602001808311611410575b505093505050506040516020818303038152906040526040518082805190602001908083835b60208310151561146f578051825260208201915060208101905060208303925061144a565b6001836020036101000a0380198251168184511680821785525050505050509050019150506040518091039020600a81600019169055506002600a54600654604051602001808360001916600019168152602001828152602001925050506040516020818303038152906040526040518082805190602001908083835b60208310151561151157805182526020820191506020810190506020830392506114ec565b6001836020036101000a0380198251168184511680821785525050505050509050019150506020604051808303816000865af1158015611555573d6000803e3d6000fd5b5050506040513d602081101561156a57600080fd5b81019080805190602001909291905050506009816000191690555060016010600082825401925050819055507ff64d796e649654152635006c0e38eb3d2ec31920f3e6fb38f14aeb20c22c16896006546040518082815260200191505060405180910390a16060604051908101604052806006548152602001600a54600019168152602001601054815250600c600060105481526020019081526020016000206000820151816000015560208201518160010190600019169055604082015181600201559050506006549250505090565b62989680341015151561164d57600080fd5b6011606060405190810160405280600381526020013373ffffffffffffffffffffffffffffffffffffffff16815260200134815250908060018154018082558091505090600182039060005260206000209060030201600090919290919091506000820151816000015560208201518160010160006101000a81548173ffffffffffffffffffffffffffffffffffffffff021916908373ffffffffffffffffffffffffffffffffffffffff16021790555060408201518160020155505050600160009054906101000a900473ffffffffffffffffffffffffffffffffffffffff1673ffffffffffffffffffffffffffffffffffffffff166108fc349081150290604051600060405180830381858888f19350505050158015611773573d6000803e3d6000fd5b507feecdfce47f3ba6fac5cb5a8826eb8e71bce2a86ad6b9950b9f2553aa428533af3334604051808373ffffffffffffffffffffffffffffffffffffffff1673ffffffffffffffffffffffffffffffffffffffff1681526020018281526020019250505060405180910390a1600b60003373ffffffffffffffffffffffffffffffffffffffff1673ffffffffffffffffffffffffffffffffffffffff168152602001908152602001600020608060405190810160405280600381526020013481526020014281526020016010548152509080600181540180825580915050906001820390600052602060002090600402016000909192909190915060008201518160000155602082015181600101556040820151816002015560608201518160030155505050565b600e602052806000526040600020600091509050806000018054600181600116156101000203166002900480601f0160208091040260200160405190810160405280929190818152602001828054600181600116156101000203166002900480156119475780601f1061191c57610100808354040283529160200191611947565b820191906000526020600020905b81548152906001019060200180831161192a57829003601f168201915b505050505090806001018054600181600116156101000203166002900480601f0160208091040260200160405190810160405280929190818152602001828054600181600116156101000203166002900480156119e55780601f106119ba576101008083540402835291602001916119e5565b820191906000526020600020905b8154815290600101906020018083116119c857829003601f168201915b5050505050905082565b600a5481565b629896803410151515611a0757600080fd5b6011606060405190810160405280600581526020013373ffffffffffffffffffffffffffffffffffffffff16815260200134815250908060018154018082558091505090600182039060005260206000209060030201600090919290919091506000820151816000015560208201518160010160006101000a81548173ffffffffffffffffffffffffffffffffffffffff021916908373ffffffffffffffffffffffffffffffffffffffff16021790555060408201518160020155505050600160009054906101000a900473ffffffffffffffffffffffffffffffffffffffff1673ffffffffffffffffffffffffffffffffffffffff166108fc349081150290604051600060405180830381858888f19350505050158015611b2d573d6000803e3d6000fd5b507fac4d4313a1c1237abe16ef6286f78d3dd3f91c1c25b780bc6f483b2ba06279c03334604051808373ffffffffffffffffffffffffffffffffffffffff1673ffffffffffffffffffffffffffffffffffffffff1681526020018281526020019250505060405180910390a1600b60003373ffffffffffffffffffffffffffffffffffffffff1673ffffffffffffffffffffffffffffffffffffffff168152602001908152602001600020608060405190810160405280600581526020013481526020014281526020016010548152509080600181540180825580915050906001820390600052602060002090600402016000909192909190915060008201518160000155602082015181600101556040820151816002015560608201518160030155505050565b60105481565b60095481565b6000601180549050905090565b80600e60003373ffffffffffffffffffffffffffffffffffffffff1673ffffffffffffffffffffffffffffffffffffffff1681526020019081526020016000206000019080519060200190611cc4929190611dc6565b5050565b6000600b60008373ffffffffffffffffffffffffffffffffffffffff1673ffffffffffffffffffffffffffffffffffffffff168152602001908152602001600020805490509050919050565b828054600181600116156101000203166002900490600052602060002090601f016020900481019282601f10611d5557805160ff1916838001178555611d83565b82800160010185558215611d83579182015b82811115611d82578251825591602001919060010190611d67565b5b509050611d909190611e46565b5090565b815481835581811115611dc157600302816003028360005260206000209182019101611dc09190611e6b565b5b505050565b828054600181600116156101000203166002900490600052602060002090601f016020900481019282601f10611e0757805160ff1916838001178555611e35565b82800160010185558215611e35579182015b82811115611e34578251825591602001919060010190611e19565b5b509050611e429190611e46565b5090565b611e6891905b80821115611e64576000816000905550600101611e4c565b5090565b90565b611ebe91905b80821115611eba576000808201600090556001820160006101000a81549073ffffffffffffffffffffffffffffffffffffffff0219169055600282016000905550600301611e71565b5090565b905600a165627a7a7230582050dfcb8d5562fae3a3472928d0351b85752f293ad6bc184cdfb580b6ace973920029",
  "source": "pragma solidity ^0.4.23;\n\n\ncontract RingGame {\n    \n    uint public time;\n    address owner;\n    bool allowed;\n    uint two = 2;\n    uint three = 3;\n    uint five = 5;\n    uint fifty = 50;\n    uint public random;\n    uint public length;\n    string secretKey = \"8vQ3X5StoY\";\n    bytes32 public hashval;\n    bytes32 public salt;\n    mapping(address => MyBets[]) public myBets;\n    mapping(uint256 => PreviousGames) public previous;\n    mapping(uint256 => Message) public messages;\n    mapping(address => User) public users;\n    uint256 public messageCount = 0;\n    uint256 public previousCount = 0;\n\n    struct Bet {\n        uint betType;\n        address player;\n        uint value;\n    }\n    struct MyBets {\n        uint betType;\n        uint value;\n        uint256 timestamp;\n        uint256 round;\n    }\n    \n    struct PreviousGames{\n        uint random;\n        bytes32 salt;\n        uint256 round;\n    }\n\n    struct Message{\n        address sender;\n        string message;\n        uint256 timestamp;\n    }\n\n    struct User {\n        string username;\n        string image;\n    }\n    \n    Bet[] public bets;\n    \n    event NewBetTwo(address player, uint amount);\n    event NewBetThree(address player, uint amount);\n    event NewBetFive(address player, uint amount);\n    event NewBetFifty(address player, uint amount);\n    event PlayGame(uint time);\n    event StopGame(uint time);\n    event MessageSent(address sender, string message, uint256 timestamp);\n    \n    modifier OnlyOwner(){\n        require(msg.sender == owner);\n        _;\n    }\n    \n    constructor() public {\n        time = now;\n        owner = msg.sender;\n    }\n\n     function setUsername(string username) public {\n        users[msg.sender].username = username;\n    }\n    \n     function setAvatar(string avatar) public {\n        users[msg.sender].image = avatar;\n    }\n    \n    function betTwo() public payable {\n        require(msg.value >= 10 trx);\n        bets.push(Bet({\n            betType : 2,\n            player : msg.sender,\n            value : msg.value\n        }));\n        owner.transfer(msg.value);\n        emit NewBetTwo(msg.sender, msg.value);\n        myBets[msg.sender].push(MyBets({\n            betType: 2,\n            value: msg.value,\n            timestamp: now,\n            round: previousCount\n        }));\n    }\n    \n     function betThree() public payable {\n        require(msg.value >= 10 trx);\n        bets.push(Bet({\n            betType : 3,\n            player : msg.sender,\n            value : msg.value\n        }));\n        owner.transfer(msg.value);\n        emit NewBetThree(msg.sender, msg.value);\n        myBets[msg.sender].push(MyBets({\n            betType: 3,\n            value: msg.value,\n            timestamp: now,\n            round: previousCount\n        }));\n        \n    }\n    \n     function betFive() public payable {\n        require(msg.value >= 10 trx);\n        bets.push(Bet({\n            betType : 5,\n            player : msg.sender,\n            value : msg.value\n        }));\n        owner.transfer(msg.value);\n        emit NewBetFive(msg.sender, msg.value);\n        myBets[msg.sender].push(MyBets({\n            betType: 5,\n            value: msg.value,\n            timestamp: now,\n            round: previousCount\n        }));\n        \n    }\n    \n     function betFifty() public payable {\n        require(msg.value >= 10 trx);\n        bets.push(Bet({\n            betType : 50,\n            player : msg.sender,\n            value : msg.value\n        }));\n        owner.transfer(msg.value);\n        \n        emit NewBetFifty(msg.sender, msg.value);\n        myBets[msg.sender].push(MyBets({\n            betType: 50,\n            value: msg.value,\n            timestamp: now,\n            round: previousCount\n        }));\n        \n    }\n    \n    function play() public OnlyOwner returns (uint) {\n        uint256 diff = block.difficulty;\n        uint256 timestamp = now;\n       \n        random = uint8(uint256(keccak256(abi.encodePacked(timestamp,diff, secretKey)))%54);\n        random += 1;\n        salt = keccak256(abi.encodePacked(timestamp,diff, secretKey));\n        hashval = sha256(abi.encodePacked(salt,random));\n        previousCount += 1;\n        emit PlayGame(random);\n        previous[previousCount] = PreviousGames(random, salt, previousCount);\n        return random;\n   }\n\n   function betLenght() public view returns (uint){\n       return bets.length;\n   }\n\n\n    function stop(uint _type) public payable OnlyOwner{\n        for(uint256 i = 0; i < bets.length; i++){\n           if(bets[i].betType == _type){\n               bets[i].player.transfer(bets[i].value*bets[i].betType);\n           } \n        }\n        \n        bets.length = 0;\n        time = now;\n        emit StopGame(time);\n    }\n\n    function getLength(address user) public view returns(uint256){\n        return myBets[user].length;\n    }\n    \n    function sendMessage(string b) public {\n        messageCount += 1;\n        messages[messageCount] = Message(msg.sender, b, now);\n        emit MessageSent(msg.sender, b, now);\n    }\n\n}",
  "sourcePath": "/home/oscar/ring/contracts/RingGame.sol",
  "compiler": {
    "name": "solc",
    "version": "0.4.24-develop.2018.8.28+commit.3ba0cdec.mod.Emscripten.clang"
  },
  "schemaVersion": "2.0.1",
  "updatedAt": "2019-10-03T03:41:05.911Z"
}