{
  "contractName": "RingGame",
  "abi": [
    {
      "constant": true,
      "inputs": [],
      "name": "time",
      "outputs": [
        {
          "name": "",
          "type": "uint256"
        }
      ],
      "payable": false,
      "stateMutability": "view",
      "type": "function"
    },
    {
      "constant": true,
      "inputs": [],
      "name": "length",
      "outputs": [
        {
          "name": "",
          "type": "uint256"
        }
      ],
      "payable": false,
      "stateMutability": "view",
      "type": "function"
    },
    {
      "constant": true,
      "inputs": [
        {
          "name": "",
          "type": "uint256"
        }
      ],
      "name": "bets",
      "outputs": [
        {
          "name": "betType",
          "type": "uint256"
        },
        {
          "name": "player",
          "type": "address"
        },
        {
          "name": "value",
          "type": "uint256"
        }
      ],
      "payable": false,
      "stateMutability": "view",
      "type": "function"
    },
    {
      "constant": true,
      "inputs": [],
      "name": "random",
      "outputs": [
        {
          "name": "",
          "type": "uint256"
        }
      ],
      "payable": false,
      "stateMutability": "view",
      "type": "function"
    },
    {
      "inputs": [],
      "payable": false,
      "stateMutability": "nonpayable",
      "type": "constructor"
    },
    {
      "anonymous": false,
      "inputs": [
        {
          "indexed": false,
          "name": "player",
          "type": "address"
        },
        {
          "indexed": false,
          "name": "amount",
          "type": "uint256"
        }
      ],
      "name": "NewBetTwo",
      "type": "event"
    },
    {
      "anonymous": false,
      "inputs": [
        {
          "indexed": false,
          "name": "player",
          "type": "address"
        },
        {
          "indexed": false,
          "name": "amount",
          "type": "uint256"
        }
      ],
      "name": "NewBetThree",
      "type": "event"
    },
    {
      "anonymous": false,
      "inputs": [
        {
          "indexed": false,
          "name": "player",
          "type": "address"
        },
        {
          "indexed": false,
          "name": "amount",
          "type": "uint256"
        }
      ],
      "name": "NewBetFive",
      "type": "event"
    },
    {
      "anonymous": false,
      "inputs": [
        {
          "indexed": false,
          "name": "player",
          "type": "address"
        },
        {
          "indexed": false,
          "name": "amount",
          "type": "uint256"
        }
      ],
      "name": "NewBetFifty",
      "type": "event"
    },
    {
      "anonymous": false,
      "inputs": [
        {
          "indexed": false,
          "name": "time",
          "type": "uint256"
        }
      ],
      "name": "PlayGame",
      "type": "event"
    },
    {
      "anonymous": false,
      "inputs": [
        {
          "indexed": false,
          "name": "time",
          "type": "uint256"
        }
      ],
      "name": "StopGame",
      "type": "event"
    },
    {
      "constant": false,
      "inputs": [],
      "name": "betTwo",
      "outputs": [],
      "payable": true,
      "stateMutability": "payable",
      "type": "function"
    },
    {
      "constant": false,
      "inputs": [],
      "name": "betThree",
      "outputs": [],
      "payable": true,
      "stateMutability": "payable",
      "type": "function"
    },
    {
      "constant": false,
      "inputs": [],
      "name": "betFive",
      "outputs": [],
      "payable": true,
      "stateMutability": "payable",
      "type": "function"
    },
    {
      "constant": false,
      "inputs": [],
      "name": "betFifty",
      "outputs": [],
      "payable": true,
      "stateMutability": "payable",
      "type": "function"
    },
    {
      "constant": false,
      "inputs": [],
      "name": "play",
      "outputs": [
        {
          "name": "",
          "type": "uint256"
        }
      ],
      "payable": false,
      "stateMutability": "nonpayable",
      "type": "function"
    },
    {
      "constant": true,
      "inputs": [],
      "name": "betLenght",
      "outputs": [
        {
          "name": "",
          "type": "uint256"
        }
      ],
      "payable": false,
      "stateMutability": "view",
      "type": "function"
    },
    {
      "constant": false,
      "inputs": [
        {
          "name": "_type",
          "type": "uint256"
        }
      ],
      "name": "stop",
      "outputs": [],
      "payable": true,
      "stateMutability": "payable",
      "type": "function"
    }
  ],
  "bytecode": "0x6080604052600054600255600260045560036005556005600655603260075534801561002a57600080fd5b504260008190555033600360006101000a81548173ffffffffffffffffffffffffffffffffffffffff021916908373ffffffffffffffffffffffffffffffffffffffff160217905550610cab806100826000396000f3006080604052600436106100af576000357c0100000000000000000000000000000000000000000000000000000000900463ffffffff16806316ada547146100b45780631f7b6d32146100df57806322af00fa1461010a578063593feacf146101855780635ec01e4d1461018f5780636299f8cf146101ba57806391422550146101da57806393e84cd9146101e45780639dabb9141461020f578063c1f0039314610219578063eb00172914610223575b600080fd5b3480156100c057600080fd5b506100c961024e565b6040518082815260200191505060405180910390f35b3480156100eb57600080fd5b506100f4610254565b6040518082815260200191505060405180910390f35b34801561011657600080fd5b506101356004803603810190808035906020019092919050505061025a565b604051808481526020018373ffffffffffffffffffffffffffffffffffffffff1673ffffffffffffffffffffffffffffffffffffffff168152602001828152602001935050505060405180910390f35b61018d6102b3565b005b34801561019b57600080fd5b506101a4610459565b6040518082815260200191505060405180910390f35b6101d86004803603810190808035906020019092919050505061045f565b005b6101e2610622565b005b3480156101f057600080fd5b506101f96107c8565b6040518082815260200191505060405180910390f35b61021761089e565b005b610221610a44565b005b34801561022f57600080fd5b50610238610bea565b6040518082815260200191505060405180910390f35b60005481565b60095481565b600a8181548110151561026957fe5b90600052602060002090600302016000915090508060000154908060010160009054906101000a900473ffffffffffffffffffffffffffffffffffffffff16908060020154905083565b6298968034101515156102c557600080fd5b600a606060405190810160405280603281526020013373ffffffffffffffffffffffffffffffffffffffff16815260200134815250908060018154018082558091505090600182039060005260206000209060030201600090919290919091506000820151816000015560208201518160010160006101000a81548173ffffffffffffffffffffffffffffffffffffffff021916908373ffffffffffffffffffffffffffffffffffffffff16021790555060408201518160020155505050600360009054906101000a900473ffffffffffffffffffffffffffffffffffffffff1673ffffffffffffffffffffffffffffffffffffffff166108fc349081150290604051600060405180830381858888f193505050501580156103eb573d6000803e3d6000fd5b507f9b93b9feee7762992c2ad1bc3134a273b95544623d8382820423fe19d6712cca3334604051808373ffffffffffffffffffffffffffffffffffffffff1673ffffffffffffffffffffffffffffffffffffffff1681526020018281526020019250505060405180910390a1565b60085481565b6000600360009054906101000a900473ffffffffffffffffffffffffffffffffffffffff1673ffffffffffffffffffffffffffffffffffffffff163373ffffffffffffffffffffffffffffffffffffffff161415156104bd57600080fd5b600090505b600a805490508110156105ce5781600a828154811015156104df57fe5b90600052602060002090600302016000015414156105c157600a8181548110151561050657fe5b906000526020600020906003020160010160009054906101000a900473ffffffffffffffffffffffffffffffffffffffff1673ffffffffffffffffffffffffffffffffffffffff166108fc600a8381548110151561056057fe5b906000526020600020906003020160000154600a8481548110151561058157fe5b906000526020600020906003020160020154029081150290604051600060405180830381858888f193505050501580156105bf573d6000803e3d6000fd5b505b80806001019150506104c2565b6000600a816105dd9190610bf7565b50426000819055507fb0f6e393e836b3fa2360731681f20187440362cd97fb998ae3dbbb5ad4ecb2a36000546040518082815260200191505060405180910390a15050565b62989680341015151561063457600080fd5b600a606060405190810160405280600281526020013373ffffffffffffffffffffffffffffffffffffffff16815260200134815250908060018154018082558091505090600182039060005260206000209060030201600090919290919091506000820151816000015560208201518160010160006101000a81548173ffffffffffffffffffffffffffffffffffffffff021916908373ffffffffffffffffffffffffffffffffffffffff16021790555060408201518160020155505050600360009054906101000a900473ffffffffffffffffffffffffffffffffffffffff1673ffffffffffffffffffffffffffffffffffffffff166108fc349081150290604051600060405180830381858888f1935050505015801561075a573d6000803e3d6000fd5b507fdd92187a14de7740ac2c0b5abb8bdeb3f9c7b3337c2a76b834e4e0d3530c19e53334604051808373ffffffffffffffffffffffffffffffffffffffff1673ffffffffffffffffffffffffffffffffffffffff1681526020018281526020019250505060405180910390a1565b6000600360009054906101000a900473ffffffffffffffffffffffffffffffffffffffff1673ffffffffffffffffffffffffffffffffffffffff163373ffffffffffffffffffffffffffffffffffffffff1614151561082657600080fd5b60374244604051808381526020018281526020019250505060405180910390206001900481151561085357fe5b0660ff166008819055507ff64d796e649654152635006c0e38eb3d2ec31920f3e6fb38f14aeb20c22c16896008546040518082815260200191505060405180910390a1600854905090565b6298968034101515156108b057600080fd5b600a606060405190810160405280600381526020013373ffffffffffffffffffffffffffffffffffffffff16815260200134815250908060018154018082558091505090600182039060005260206000209060030201600090919290919091506000820151816000015560208201518160010160006101000a81548173ffffffffffffffffffffffffffffffffffffffff021916908373ffffffffffffffffffffffffffffffffffffffff16021790555060408201518160020155505050600360009054906101000a900473ffffffffffffffffffffffffffffffffffffffff1673ffffffffffffffffffffffffffffffffffffffff166108fc349081150290604051600060405180830381858888f193505050501580156109d6573d6000803e3d6000fd5b507feecdfce47f3ba6fac5cb5a8826eb8e71bce2a86ad6b9950b9f2553aa428533af3334604051808373ffffffffffffffffffffffffffffffffffffffff1673ffffffffffffffffffffffffffffffffffffffff1681526020018281526020019250505060405180910390a1565b629896803410151515610a5657600080fd5b600a606060405190810160405280600581526020013373ffffffffffffffffffffffffffffffffffffffff16815260200134815250908060018154018082558091505090600182039060005260206000209060030201600090919290919091506000820151816000015560208201518160010160006101000a81548173ffffffffffffffffffffffffffffffffffffffff021916908373ffffffffffffffffffffffffffffffffffffffff16021790555060408201518160020155505050600360009054906101000a900473ffffffffffffffffffffffffffffffffffffffff1673ffffffffffffffffffffffffffffffffffffffff166108fc349081150290604051600060405180830381858888f19350505050158015610b7c573d6000803e3d6000fd5b507fac4d4313a1c1237abe16ef6286f78d3dd3f91c1c25b780bc6f483b2ba06279c03334604051808373ffffffffffffffffffffffffffffffffffffffff1673ffffffffffffffffffffffffffffffffffffffff1681526020018281526020019250505060405180910390a1565b6000600a80549050905090565b815481835581811115610c2457600302816003028360005260206000209182019101610c239190610c29565b5b505050565b610c7c91905b80821115610c78576000808201600090556001820160006101000a81549073ffffffffffffffffffffffffffffffffffffffff0219169055600282016000905550600301610c2f565b5090565b905600a165627a7a72305820a491c06eea65ade9dd9e1e18a5a2bcfd26fba9a4309d7a99fb1510a65d942b390029",
  "source": "pragma solidity ^0.4.23;\n\n\ncontract RingGame {\n    \n    uint public time;\n    uint randomNum;\n    uint256 nextRoundInterval = time;\n    address owner;\n    bool allowed;\n    uint two = 2;\n    uint three = 3;\n    uint five = 5;\n    uint fifty = 50;\n    uint public random;\n    uint public length;\n    struct Bet {\n        uint betType;\n        address player;\n        uint value;\n    }\n    \n    Bet[] public bets;\n    \n    event NewBetTwo(address player, uint amount);\n    event NewBetThree(address player, uint amount);\n    event NewBetFive(address player, uint amount);\n    event NewBetFifty(address player, uint amount);\n    event PlayGame(uint time);\n    event StopGame(uint time);\n    \n    modifier OnlyOwner(){\n        require(msg.sender == owner);\n        _;\n    }\n    \n    constructor() public {\n        time = now;\n        owner = msg.sender;\n    }\n    \n    function betTwo() public payable {\n        require(msg.value >= 10 trx);\n        bets.push(Bet({\n            betType : 2,\n            player : msg.sender,\n            value : msg.value\n        }));\n        owner.transfer(msg.value);\n        emit NewBetTwo(msg.sender, msg.value);\n    }\n    \n     function betThree() public payable {\n        require(msg.value >= 10 trx);\n        bets.push(Bet({\n            betType : 3,\n            player : msg.sender,\n            value : msg.value\n        }));\n        owner.transfer(msg.value);\n        emit NewBetThree(msg.sender, msg.value);\n        \n    }\n    \n     function betFive() public payable {\n        require(msg.value >= 10 trx);\n        bets.push(Bet({\n            betType : 5,\n            player : msg.sender,\n            value : msg.value\n        }));\n        owner.transfer(msg.value);\n        emit NewBetFive(msg.sender, msg.value);\n        \n    }\n    \n     function betFifty() public payable {\n        require(msg.value >= 10 trx);\n        bets.push(Bet({\n            betType : 50,\n            player : msg.sender,\n            value : msg.value\n        }));\n        owner.transfer(msg.value);\n        \n        emit NewBetFifty(msg.sender, msg.value);\n        \n    }\n    \n    function play() public OnlyOwner returns (uint) {\n        random = uint8(uint256(keccak256(block.timestamp, block.difficulty))%55);\n        emit PlayGame(random);\n        return random;\n   }\n\n   function betLenght() public view returns (uint){\n       return bets.length;\n   }\n\n\n    function stop(uint _type) public payable OnlyOwner{\n        for(uint256 i = 0; i < bets.length; i++){\n           if(bets[i].betType == _type){\n               bets[i].player.transfer(bets[i].value*bets[i].betType);\n           } \n        }\n        \n        bets.length = 0;\n        time = now;\n        emit StopGame(time);\n    }\n    \n}",
  "sourcePath": "/home/oscar/ring/contracts/RingGame.sol",
  "compiler": {
    "name": "solc",
    "version": "0.4.24-develop.2018.8.28+commit.3ba0cdec.mod.Emscripten.clang"
  },
  "schemaVersion": "2.0.1",
  "updatedAt": "2019-09-02T06:01:58.080Z"
}