{
  "contractName": "RingGame",
  "abi": [
    {
      "constant": true,
      "inputs": [
        {
          "name": "",
          "type": "uint256"
        }
      ],
      "name": "messages",
      "outputs": [
        {
          "name": "sender",
          "type": "address"
        },
        {
          "name": "message",
          "type": "string"
        }
      ],
      "payable": false,
      "stateMutability": "view",
      "type": "function"
    },
    {
      "constant": true,
      "inputs": [],
      "name": "time",
      "outputs": [
        {
          "name": "",
          "type": "uint256"
        }
      ],
      "payable": false,
      "stateMutability": "view",
      "type": "function"
    },
    {
      "constant": true,
      "inputs": [],
      "name": "length",
      "outputs": [
        {
          "name": "",
          "type": "uint256"
        }
      ],
      "payable": false,
      "stateMutability": "view",
      "type": "function"
    },
    {
      "constant": true,
      "inputs": [
        {
          "name": "",
          "type": "uint256"
        }
      ],
      "name": "bets",
      "outputs": [
        {
          "name": "betType",
          "type": "uint256"
        },
        {
          "name": "player",
          "type": "address"
        },
        {
          "name": "value",
          "type": "uint256"
        }
      ],
      "payable": false,
      "stateMutability": "view",
      "type": "function"
    },
    {
      "constant": true,
      "inputs": [
        {
          "name": "",
          "type": "uint256"
        }
      ],
      "name": "previous",
      "outputs": [
        {
          "name": "random",
          "type": "uint256"
        },
        {
          "name": "salt",
          "type": "bytes32"
        },
        {
          "name": "round",
          "type": "uint256"
        }
      ],
      "payable": false,
      "stateMutability": "view",
      "type": "function"
    },
    {
      "constant": true,
      "inputs": [],
      "name": "messageCount",
      "outputs": [
        {
          "name": "",
          "type": "uint256"
        }
      ],
      "payable": false,
      "stateMutability": "view",
      "type": "function"
    },
    {
      "constant": true,
      "inputs": [],
      "name": "random",
      "outputs": [
        {
          "name": "",
          "type": "uint256"
        }
      ],
      "payable": false,
      "stateMutability": "view",
      "type": "function"
    },
    {
      "constant": true,
      "inputs": [
        {
          "name": "",
          "type": "address"
        },
        {
          "name": "",
          "type": "uint256"
        }
      ],
      "name": "myBets",
      "outputs": [
        {
          "name": "betType",
          "type": "uint256"
        },
        {
          "name": "value",
          "type": "uint256"
        },
        {
          "name": "timestamp",
          "type": "uint256"
        },
        {
          "name": "round",
          "type": "uint256"
        }
      ],
      "payable": false,
      "stateMutability": "view",
      "type": "function"
    },
    {
      "constant": true,
      "inputs": [
        {
          "name": "",
          "type": "address"
        }
      ],
      "name": "users",
      "outputs": [
        {
          "name": "username",
          "type": "string"
        },
        {
          "name": "image",
          "type": "string"
        }
      ],
      "payable": false,
      "stateMutability": "view",
      "type": "function"
    },
    {
      "constant": true,
      "inputs": [],
      "name": "salt",
      "outputs": [
        {
          "name": "",
          "type": "bytes32"
        }
      ],
      "payable": false,
      "stateMutability": "view",
      "type": "function"
    },
    {
      "constant": true,
      "inputs": [],
      "name": "previousCount",
      "outputs": [
        {
          "name": "",
          "type": "uint256"
        }
      ],
      "payable": false,
      "stateMutability": "view",
      "type": "function"
    },
    {
      "constant": true,
      "inputs": [],
      "name": "hashval",
      "outputs": [
        {
          "name": "",
          "type": "bytes32"
        }
      ],
      "payable": false,
      "stateMutability": "view",
      "type": "function"
    },
    {
      "inputs": [],
      "payable": false,
      "stateMutability": "nonpayable",
      "type": "constructor"
    },
    {
      "anonymous": false,
      "inputs": [
        {
          "indexed": false,
          "name": "player",
          "type": "address"
        },
        {
          "indexed": false,
          "name": "amount",
          "type": "uint256"
        }
      ],
      "name": "NewBetTwo",
      "type": "event"
    },
    {
      "anonymous": false,
      "inputs": [
        {
          "indexed": false,
          "name": "player",
          "type": "address"
        },
        {
          "indexed": false,
          "name": "amount",
          "type": "uint256"
        }
      ],
      "name": "NewBetThree",
      "type": "event"
    },
    {
      "anonymous": false,
      "inputs": [
        {
          "indexed": false,
          "name": "player",
          "type": "address"
        },
        {
          "indexed": false,
          "name": "amount",
          "type": "uint256"
        }
      ],
      "name": "NewBetFive",
      "type": "event"
    },
    {
      "anonymous": false,
      "inputs": [
        {
          "indexed": false,
          "name": "player",
          "type": "address"
        },
        {
          "indexed": false,
          "name": "amount",
          "type": "uint256"
        }
      ],
      "name": "NewBetFifty",
      "type": "event"
    },
    {
      "anonymous": false,
      "inputs": [
        {
          "indexed": false,
          "name": "time",
          "type": "uint256"
        }
      ],
      "name": "PlayGame",
      "type": "event"
    },
    {
      "anonymous": false,
      "inputs": [
        {
          "indexed": false,
          "name": "time",
          "type": "uint256"
        }
      ],
      "name": "StopGame",
      "type": "event"
    },
    {
      "anonymous": false,
      "inputs": [
        {
          "indexed": false,
          "name": "sender",
          "type": "address"
        },
        {
          "indexed": false,
          "name": "message",
          "type": "string"
        }
      ],
      "name": "MessageSent",
      "type": "event"
    },
    {
      "constant": false,
      "inputs": [
        {
          "name": "username",
          "type": "string"
        }
      ],
      "name": "setUsername",
      "outputs": [],
      "payable": false,
      "stateMutability": "nonpayable",
      "type": "function"
    },
    {
      "constant": false,
      "inputs": [
        {
          "name": "avatar",
          "type": "string"
        }
      ],
      "name": "setAvatar",
      "outputs": [],
      "payable": false,
      "stateMutability": "nonpayable",
      "type": "function"
    },
    {
      "constant": false,
      "inputs": [],
      "name": "betTwo",
      "outputs": [],
      "payable": true,
      "stateMutability": "payable",
      "type": "function"
    },
    {
      "constant": false,
      "inputs": [],
      "name": "betThree",
      "outputs": [],
      "payable": true,
      "stateMutability": "payable",
      "type": "function"
    },
    {
      "constant": false,
      "inputs": [],
      "name": "betFive",
      "outputs": [],
      "payable": true,
      "stateMutability": "payable",
      "type": "function"
    },
    {
      "constant": false,
      "inputs": [],
      "name": "betFifty",
      "outputs": [],
      "payable": true,
      "stateMutability": "payable",
      "type": "function"
    },
    {
      "constant": false,
      "inputs": [],
      "name": "play",
      "outputs": [
        {
          "name": "",
          "type": "uint256"
        }
      ],
      "payable": false,
      "stateMutability": "nonpayable",
      "type": "function"
    },
    {
      "constant": true,
      "inputs": [],
      "name": "betLenght",
      "outputs": [
        {
          "name": "",
          "type": "uint256"
        }
      ],
      "payable": false,
      "stateMutability": "view",
      "type": "function"
    },
    {
      "constant": false,
      "inputs": [
        {
          "name": "_type",
          "type": "uint256"
        }
      ],
      "name": "stop",
      "outputs": [],
      "payable": true,
      "stateMutability": "payable",
      "type": "function"
    },
    {
      "constant": true,
      "inputs": [
        {
          "name": "user",
          "type": "address"
        }
      ],
      "name": "getLength",
      "outputs": [
        {
          "name": "",
          "type": "uint256"
        }
      ],
      "payable": false,
      "stateMutability": "view",
      "type": "function"
    },
    {
      "constant": false,
      "inputs": [
        {
          "name": "b",
          "type": "string"
        }
      ],
      "name": "sendMessage",
      "outputs": [],
      "payable": false,
      "stateMutability": "nonpayable",
      "type": "function"
    }
  ],
  "bytecode": "0x60806040526002805560038055600560045560326005556040805190810160405280600a81526020017f38765133583553746f59000000000000000000000000000000000000000000008152506008908051906020019062000063929190620000ca565b506000600f5560006010553480156200007b57600080fd5b504260008190555033600160006101000a81548173ffffffffffffffffffffffffffffffffffffffff021916908373ffffffffffffffffffffffffffffffffffffffff16021790555062000179565b828054600181600116156101000203166002900490600052602060002090601f016020900481019282601f106200010d57805160ff19168380011785556200013e565b828001600101855582156200013e579182015b828111156200013d57825182559160200191906001019062000120565b5b5090506200014d919062000151565b5090565b6200017691905b808211156200017257600081600090555060010162000158565b5090565b90565b611ec780620001896000396000f300608060405260043610610133576000357c0100000000000000000000000000000000000000000000000000000000900463ffffffff1680630d80fefd1461013857806316ada547146102115780631f7b6d321461023c57806322af00fa146102675780633c311f3c146102e25780633dbcc8d114610339578063469c811014610364578063593feacf146103cd5780635ec01e4d146103d75780636299f8cf146104025780636ec5239f146104225780637f9b2de91461048b578063914225501461050157806393e84cd91461050b5780639dabb91414610536578063a87430ba14610540578063bfa0b13314610668578063c1f003931461069b578063c9f9b923146106a5578063dd59d2e1146106d0578063eb00172914610703578063ed59313a1461072e578063fe611a0714610797575b600080fd5b34801561014457600080fd5b50610163600480360381019080803590602001909291905050506107ee565b604051808373ffffffffffffffffffffffffffffffffffffffff1673ffffffffffffffffffffffffffffffffffffffff16815260200180602001828103825283818151815260200191508051906020019080838360005b838110156101d55780820151818401526020810190506101ba565b50505050905090810190601f1680156102025780820380516001836020036101000a031916815260200191505b50935050505060405180910390f35b34801561021d57600080fd5b506102266108ca565b6040518082815260200191505060405180910390f35b34801561024857600080fd5b506102516108d0565b6040518082815260200191505060405180910390f35b34801561027357600080fd5b50610292600480360381019080803590602001909291905050506108d6565b604051808481526020018373ffffffffffffffffffffffffffffffffffffffff1673ffffffffffffffffffffffffffffffffffffffff168152602001828152602001935050505060405180910390f35b3480156102ee57600080fd5b5061030d6004803603810190808035906020019092919050505061092f565b604051808481526020018360001916600019168152602001828152602001935050505060405180910390f35b34801561034557600080fd5b5061034e610959565b6040518082815260200191505060405180910390f35b34801561037057600080fd5b506103cb600480360381019080803590602001908201803590602001908080601f016020809104026020016040519081016040528093929190818152602001838380828437820191505050505050919291929050505061095f565b005b6103d5610aea565b005b3480156103e357600080fd5b506103ec610d4a565b6040518082815260200191505060405180910390f35b61042060048036038101908080359060200190929190505050610d50565b005b34801561042e57600080fd5b50610489600480360381019080803590602001908201803590602001908080601f0160208091040260200160405190810160405280939291908181526020018383808284378201915050505050509192919290505050610f13565b005b34801561049757600080fd5b506104d6600480360381019080803573ffffffffffffffffffffffffffffffffffffffff16906020019092919080359060200190929190505050610f6d565b6040518085815260200184815260200183815260200182815260200194505050505060405180910390f35b610509610fb9565b005b34801561051757600080fd5b50610520611219565b6040518082815260200191505060405180910390f35b61053e611615565b005b34801561054c57600080fd5b50610581600480360381019080803573ffffffffffffffffffffffffffffffffffffffff169060200190929190505050611875565b604051808060200180602001838103835285818151815260200191508051906020019080838360005b838110156105c55780820151818401526020810190506105aa565b50505050905090810190601f1680156105f25780820380516001836020036101000a031916815260200191505b50838103825284818151815260200191508051906020019080838360005b8381101561062b578082015181840152602081019050610610565b50505050905090810190601f1680156106585780820380516001836020036101000a031916815260200191505b5094505050505060405180910390f35b34801561067457600080fd5b5061067d6119c9565b60405180826000191660001916815260200191505060405180910390f35b6106a36119cf565b005b3480156106b157600080fd5b506106ba611c2f565b6040518082815260200191505060405180910390f35b3480156106dc57600080fd5b506106e5611c35565b60405180826000191660001916815260200191505060405180910390f35b34801561070f57600080fd5b50610718611c3b565b6040518082815260200191505060405180910390f35b34801561073a57600080fd5b50610795600480360381019080803590602001908201803590602001908080601f0160208091040260200160405190810160405280939291908181526020018383808284378201915050505050509192919290505050611c48565b005b3480156107a357600080fd5b506107d8600480360381019080803573ffffffffffffffffffffffffffffffffffffffff169060200190929190505050611ca2565b6040518082815260200191505060405180910390f35b600d6020528060005260406000206000915090508060000160009054906101000a900473ffffffffffffffffffffffffffffffffffffffff1690806001018054600181600116156101000203166002900480601f0160208091040260200160405190810160405280929190818152602001828054600181600116156101000203166002900480156108c05780601f10610895576101008083540402835291602001916108c0565b820191906000526020600020905b8154815290600101906020018083116108a357829003601f168201915b5050505050905082565b60005481565b60075481565b6011818154811015156108e557fe5b90600052602060002090600302016000915090508060000154908060010160009054906101000a900473ffffffffffffffffffffffffffffffffffffffff16908060020154905083565b600c6020528060005260406000206000915090508060000154908060010154908060020154905083565b600f5481565b6001600f6000828254019250508190555060408051908101604052803373ffffffffffffffffffffffffffffffffffffffff16815260200182815250600d6000600f54815260200190815260200160002060008201518160000160006101000a81548173ffffffffffffffffffffffffffffffffffffffff021916908373ffffffffffffffffffffffffffffffffffffffff1602179055506020820151816001019080519060200190610a13929190611cee565b509050507f0d7fccda06d6eb51c23cbd16d49b9b3f3ebafb002dba1b074895cbb35d0e81303382604051808373ffffffffffffffffffffffffffffffffffffffff1673ffffffffffffffffffffffffffffffffffffffff16815260200180602001828103825283818151815260200191508051906020019080838360005b83811015610aac578082015181840152602081019050610a91565b50505050905090810190601f168015610ad95780820380516001836020036101000a031916815260200191505b50935050505060405180910390a150565b629896803410151515610afc57600080fd5b6011606060405190810160405280603281526020013373ffffffffffffffffffffffffffffffffffffffff16815260200134815250908060018154018082558091505090600182039060005260206000209060030201600090919290919091506000820151816000015560208201518160010160006101000a81548173ffffffffffffffffffffffffffffffffffffffff021916908373ffffffffffffffffffffffffffffffffffffffff16021790555060408201518160020155505050600160009054906101000a900473ffffffffffffffffffffffffffffffffffffffff1673ffffffffffffffffffffffffffffffffffffffff166108fc349081150290604051600060405180830381858888f19350505050158015610c22573d6000803e3d6000fd5b507f9b93b9feee7762992c2ad1bc3134a273b95544623d8382820423fe19d6712cca3334604051808373ffffffffffffffffffffffffffffffffffffffff1673ffffffffffffffffffffffffffffffffffffffff1681526020018281526020019250505060405180910390a1600b60003373ffffffffffffffffffffffffffffffffffffffff1673ffffffffffffffffffffffffffffffffffffffff168152602001908152602001600020608060405190810160405280603281526020013481526020014281526020016010548152509080600181540180825580915050906001820390600052602060002090600402016000909192909190915060008201518160000155602082015181600101556040820151816002015560608201518160030155505050565b60065481565b6000600160009054906101000a900473ffffffffffffffffffffffffffffffffffffffff1673ffffffffffffffffffffffffffffffffffffffff163373ffffffffffffffffffffffffffffffffffffffff16141515610dae57600080fd5b600090505b601180549050811015610ebf5781601182815481101515610dd057fe5b9060005260206000209060030201600001541415610eb257601181815481101515610df757fe5b906000526020600020906003020160010160009054906101000a900473ffffffffffffffffffffffffffffffffffffffff1673ffffffffffffffffffffffffffffffffffffffff166108fc601183815481101515610e5157fe5b906000526020600020906003020160000154601184815481101515610e7257fe5b906000526020600020906003020160020154029081150290604051600060405180830381858888f19350505050158015610eb0573d6000803e3d6000fd5b505b8080600101915050610db3565b6000601181610ece9190611d6e565b50426000819055507fb0f6e393e836b3fa2360731681f20187440362cd97fb998ae3dbbb5ad4ecb2a36000546040518082815260200191505060405180910390a15050565b80600e60003373ffffffffffffffffffffffffffffffffffffffff1673ffffffffffffffffffffffffffffffffffffffff1681526020019081526020016000206001019080519060200190610f69929190611da0565b5050565b600b60205281600052604060002081815481101515610f8857fe5b9060005260206000209060040201600091509150508060000154908060010154908060020154908060030154905084565b629896803410151515610fcb57600080fd5b6011606060405190810160405280600281526020013373ffffffffffffffffffffffffffffffffffffffff16815260200134815250908060018154018082558091505090600182039060005260206000209060030201600090919290919091506000820151816000015560208201518160010160006101000a81548173ffffffffffffffffffffffffffffffffffffffff021916908373ffffffffffffffffffffffffffffffffffffffff16021790555060408201518160020155505050600160009054906101000a900473ffffffffffffffffffffffffffffffffffffffff1673ffffffffffffffffffffffffffffffffffffffff166108fc349081150290604051600060405180830381858888f193505050501580156110f1573d6000803e3d6000fd5b507fdd92187a14de7740ac2c0b5abb8bdeb3f9c7b3337c2a76b834e4e0d3530c19e53334604051808373ffffffffffffffffffffffffffffffffffffffff1673ffffffffffffffffffffffffffffffffffffffff1681526020018281526020019250505060405180910390a1600b60003373ffffffffffffffffffffffffffffffffffffffff1673ffffffffffffffffffffffffffffffffffffffff168152602001908152602001600020608060405190810160405280600281526020013481526020014281526020016010548152509080600181540180825580915050906001820390600052602060002090600402016000909192909190915060008201518160000155602082015181600101556040820151816002015560608201518160030155505050565b6000806000600160009054906101000a900473ffffffffffffffffffffffffffffffffffffffff1673ffffffffffffffffffffffffffffffffffffffff163373ffffffffffffffffffffffffffffffffffffffff1614151561127a57600080fd5b44915042905060368183600860405160200180848152602001838152602001828054600181600116156101000203166002900480156112f05780601f106112ce5761010080835404028352918201916112f0565b820191906000526020600020905b8154815290600101906020018083116112dc575b505093505050506040516020818303038152906040526040518082805190602001908083835b60208310151561133b5780518252602082019150602081019050602083039250611316565b6001836020036101000a03801982511681845116808217855250505050505090500191505060405180910390206001900481151561137557fe5b0660ff1660068190555060016006600082825401925050819055508082600860405160200180848152602001838152602001828054600181600116156101000203166002900480156113fe5780601f106113dc5761010080835404028352918201916113fe565b820191906000526020600020905b8154815290600101906020018083116113ea575b505093505050506040516020818303038152906040526040518082805190602001908083835b6020831015156114495780518252602082019150602081019050602083039250611424565b6001836020036101000a0380198251168184511680821785525050505050509050019150506040518091039020600a81600019169055506002600a54600654604051602001808360001916600019168152602001828152602001925050506040516020818303038152906040526040518082805190602001908083835b6020831015156114eb57805182526020820191506020810190506020830392506114c6565b6001836020036101000a0380198251168184511680821785525050505050509050019150506020604051808303816000865af115801561152f573d6000803e3d6000fd5b5050506040513d602081101561154457600080fd5b81019080805190602001909291905050506009816000191690555060016010600082825401925050819055507ff64d796e649654152635006c0e38eb3d2ec31920f3e6fb38f14aeb20c22c16896006546040518082815260200191505060405180910390a16060604051908101604052806006548152602001600a54600019168152602001601054815250600c600060105481526020019081526020016000206000820151816000015560208201518160010190600019169055604082015181600201559050506006549250505090565b62989680341015151561162757600080fd5b6011606060405190810160405280600381526020013373ffffffffffffffffffffffffffffffffffffffff16815260200134815250908060018154018082558091505090600182039060005260206000209060030201600090919290919091506000820151816000015560208201518160010160006101000a81548173ffffffffffffffffffffffffffffffffffffffff021916908373ffffffffffffffffffffffffffffffffffffffff16021790555060408201518160020155505050600160009054906101000a900473ffffffffffffffffffffffffffffffffffffffff1673ffffffffffffffffffffffffffffffffffffffff166108fc349081150290604051600060405180830381858888f1935050505015801561174d573d6000803e3d6000fd5b507feecdfce47f3ba6fac5cb5a8826eb8e71bce2a86ad6b9950b9f2553aa428533af3334604051808373ffffffffffffffffffffffffffffffffffffffff1673ffffffffffffffffffffffffffffffffffffffff1681526020018281526020019250505060405180910390a1600b60003373ffffffffffffffffffffffffffffffffffffffff1673ffffffffffffffffffffffffffffffffffffffff168152602001908152602001600020608060405190810160405280600381526020013481526020014281526020016010548152509080600181540180825580915050906001820390600052602060002090600402016000909192909190915060008201518160000155602082015181600101556040820151816002015560608201518160030155505050565b600e602052806000526040600020600091509050806000018054600181600116156101000203166002900480601f0160208091040260200160405190810160405280929190818152602001828054600181600116156101000203166002900480156119215780601f106118f657610100808354040283529160200191611921565b820191906000526020600020905b81548152906001019060200180831161190457829003601f168201915b505050505090806001018054600181600116156101000203166002900480601f0160208091040260200160405190810160405280929190818152602001828054600181600116156101000203166002900480156119bf5780601f10611994576101008083540402835291602001916119bf565b820191906000526020600020905b8154815290600101906020018083116119a257829003601f168201915b5050505050905082565b600a5481565b6298968034101515156119e157600080fd5b6011606060405190810160405280600581526020013373ffffffffffffffffffffffffffffffffffffffff16815260200134815250908060018154018082558091505090600182039060005260206000209060030201600090919290919091506000820151816000015560208201518160010160006101000a81548173ffffffffffffffffffffffffffffffffffffffff021916908373ffffffffffffffffffffffffffffffffffffffff16021790555060408201518160020155505050600160009054906101000a900473ffffffffffffffffffffffffffffffffffffffff1673ffffffffffffffffffffffffffffffffffffffff166108fc349081150290604051600060405180830381858888f19350505050158015611b07573d6000803e3d6000fd5b507fac4d4313a1c1237abe16ef6286f78d3dd3f91c1c25b780bc6f483b2ba06279c03334604051808373ffffffffffffffffffffffffffffffffffffffff1673ffffffffffffffffffffffffffffffffffffffff1681526020018281526020019250505060405180910390a1600b60003373ffffffffffffffffffffffffffffffffffffffff1673ffffffffffffffffffffffffffffffffffffffff168152602001908152602001600020608060405190810160405280600581526020013481526020014281526020016010548152509080600181540180825580915050906001820390600052602060002090600402016000909192909190915060008201518160000155602082015181600101556040820151816002015560608201518160030155505050565b60105481565b60095481565b6000601180549050905090565b80600e60003373ffffffffffffffffffffffffffffffffffffffff1673ffffffffffffffffffffffffffffffffffffffff1681526020019081526020016000206000019080519060200190611c9e929190611da0565b5050565b6000600b60008373ffffffffffffffffffffffffffffffffffffffff1673ffffffffffffffffffffffffffffffffffffffff168152602001908152602001600020805490509050919050565b828054600181600116156101000203166002900490600052602060002090601f016020900481019282601f10611d2f57805160ff1916838001178555611d5d565b82800160010185558215611d5d579182015b82811115611d5c578251825591602001919060010190611d41565b5b509050611d6a9190611e20565b5090565b815481835581811115611d9b57600302816003028360005260206000209182019101611d9a9190611e45565b5b505050565b828054600181600116156101000203166002900490600052602060002090601f016020900481019282601f10611de157805160ff1916838001178555611e0f565b82800160010185558215611e0f579182015b82811115611e0e578251825591602001919060010190611df3565b5b509050611e1c9190611e20565b5090565b611e4291905b80821115611e3e576000816000905550600101611e26565b5090565b90565b611e9891905b80821115611e94576000808201600090556001820160006101000a81549073ffffffffffffffffffffffffffffffffffffffff0219169055600282016000905550600301611e4b565b5090565b905600a165627a7a7230582011cf7b55ebc4cfa9c41e76ce4c4dcd1a430ca62ed71f0ea709526c9133981ac90029",
  "source": "pragma solidity ^0.4.23;\n\n\ncontract RingGame {\n    \n    uint public time;\n    address owner;\n    bool allowed;\n    uint two = 2;\n    uint three = 3;\n    uint five = 5;\n    uint fifty = 50;\n    uint public random;\n    uint public length;\n    string secretKey = \"8vQ3X5StoY\";\n    bytes32 public hashval;\n    bytes32 public salt;\n    mapping(address => MyBets[]) public myBets;\n    mapping(uint256 => PreviousGames) public previous;\n    mapping(uint256 => Message) public messages;\n    mapping(address => User) public users;\n    uint256 public messageCount = 0;\n    uint256 public previousCount = 0;\n\n    struct Bet {\n        uint betType;\n        address player;\n        uint value;\n    }\n    struct MyBets {\n        uint betType;\n        uint value;\n        uint256 timestamp;\n        uint256 round;\n    }\n    \n    struct PreviousGames{\n        uint random;\n        bytes32 salt;\n        uint256 round;\n    }\n\n    struct Message{\n        address sender;\n        string message;\n    }\n\n    struct User {\n        string username;\n        string image;\n    }\n    \n    Bet[] public bets;\n    \n    event NewBetTwo(address player, uint amount);\n    event NewBetThree(address player, uint amount);\n    event NewBetFive(address player, uint amount);\n    event NewBetFifty(address player, uint amount);\n    event PlayGame(uint time);\n    event StopGame(uint time);\n    event MessageSent(address sender, string message);\n    \n    modifier OnlyOwner(){\n        require(msg.sender == owner);\n        _;\n    }\n    \n    constructor() public {\n        time = now;\n        owner = msg.sender;\n    }\n\n     function setUsername(string username) public {\n        users[msg.sender].username = username;\n    }\n    \n     function setAvatar(string avatar) public {\n        users[msg.sender].image = avatar;\n    }\n    \n    function betTwo() public payable {\n        require(msg.value >= 10 trx);\n        bets.push(Bet({\n            betType : 2,\n            player : msg.sender,\n            value : msg.value\n        }));\n        owner.transfer(msg.value);\n        emit NewBetTwo(msg.sender, msg.value);\n        myBets[msg.sender].push(MyBets({\n            betType: 2,\n            value: msg.value,\n            timestamp: now,\n            round: previousCount\n        }));\n    }\n    \n     function betThree() public payable {\n        require(msg.value >= 10 trx);\n        bets.push(Bet({\n            betType : 3,\n            player : msg.sender,\n            value : msg.value\n        }));\n        owner.transfer(msg.value);\n        emit NewBetThree(msg.sender, msg.value);\n        myBets[msg.sender].push(MyBets({\n            betType: 3,\n            value: msg.value,\n            timestamp: now,\n            round: previousCount\n        }));\n        \n    }\n    \n     function betFive() public payable {\n        require(msg.value >= 10 trx);\n        bets.push(Bet({\n            betType : 5,\n            player : msg.sender,\n            value : msg.value\n        }));\n        owner.transfer(msg.value);\n        emit NewBetFive(msg.sender, msg.value);\n        myBets[msg.sender].push(MyBets({\n            betType: 5,\n            value: msg.value,\n            timestamp: now,\n            round: previousCount\n        }));\n        \n    }\n    \n     function betFifty() public payable {\n        require(msg.value >= 10 trx);\n        bets.push(Bet({\n            betType : 50,\n            player : msg.sender,\n            value : msg.value\n        }));\n        owner.transfer(msg.value);\n        \n        emit NewBetFifty(msg.sender, msg.value);\n        myBets[msg.sender].push(MyBets({\n            betType: 50,\n            value: msg.value,\n            timestamp: now,\n            round: previousCount\n        }));\n        \n    }\n    \n    function play() public OnlyOwner returns (uint) {\n        uint256 diff = block.difficulty;\n        uint256 timestamp = now;\n       \n        random = uint8(uint256(keccak256(abi.encodePacked(timestamp,diff, secretKey)))%54);\n        random += 1;\n        salt = keccak256(abi.encodePacked(timestamp,diff, secretKey));\n        hashval = sha256(abi.encodePacked(salt,random));\n        previousCount += 1;\n        emit PlayGame(random);\n        previous[previousCount] = PreviousGames(random, salt, previousCount);\n        return random;\n   }\n\n   function betLenght() public view returns (uint){\n       return bets.length;\n   }\n\n\n    function stop(uint _type) public payable OnlyOwner{\n        for(uint256 i = 0; i < bets.length; i++){\n           if(bets[i].betType == _type){\n               bets[i].player.transfer(bets[i].value*bets[i].betType);\n           } \n        }\n        \n        bets.length = 0;\n        time = now;\n        emit StopGame(time);\n    }\n\n    function getLength(address user) public view returns(uint256){\n        return myBets[user].length;\n    }\n    \n    function sendMessage(string b) public {\n        messageCount += 1;\n        messages[messageCount] = Message(msg.sender, b);\n        emit MessageSent(msg.sender, b);\n    }\n\n}",
  "sourcePath": "/home/oscar/ring/contracts/RingGame.sol",
  "compiler": {
    "name": "solc",
    "version": "0.4.24-develop.2018.8.28+commit.3ba0cdec.mod.Emscripten.clang"
  },
  "schemaVersion": "2.0.1",
  "updatedAt": "2019-09-30T04:38:10.718Z"
}