{
  "contractName": "RingGame",
  "abi": [
    {
      "constant": true,
      "inputs": [],
      "name": "time",
      "outputs": [
        {
          "name": "",
          "type": "uint256"
        }
      ],
      "payable": false,
      "stateMutability": "view",
      "type": "function"
    },
    {
      "constant": true,
      "inputs": [],
      "name": "length",
      "outputs": [
        {
          "name": "",
          "type": "uint256"
        }
      ],
      "payable": false,
      "stateMutability": "view",
      "type": "function"
    },
    {
      "constant": true,
      "inputs": [
        {
          "name": "",
          "type": "uint256"
        }
      ],
      "name": "bets",
      "outputs": [
        {
          "name": "betType",
          "type": "uint256"
        },
        {
          "name": "player",
          "type": "address"
        },
        {
          "name": "value",
          "type": "uint256"
        }
      ],
      "payable": false,
      "stateMutability": "view",
      "type": "function"
    },
    {
      "constant": true,
      "inputs": [],
      "name": "random",
      "outputs": [
        {
          "name": "",
          "type": "uint256"
        }
      ],
      "payable": false,
      "stateMutability": "view",
      "type": "function"
    },
    {
      "constant": true,
      "inputs": [],
      "name": "salt",
      "outputs": [
        {
          "name": "",
          "type": "bytes32"
        }
      ],
      "payable": false,
      "stateMutability": "view",
      "type": "function"
    },
    {
      "constant": true,
      "inputs": [],
      "name": "hashval",
      "outputs": [
        {
          "name": "",
          "type": "bytes32"
        }
      ],
      "payable": false,
      "stateMutability": "view",
      "type": "function"
    },
    {
      "inputs": [],
      "payable": false,
      "stateMutability": "nonpayable",
      "type": "constructor"
    },
    {
      "anonymous": false,
      "inputs": [
        {
          "indexed": false,
          "name": "player",
          "type": "address"
        },
        {
          "indexed": false,
          "name": "amount",
          "type": "uint256"
        }
      ],
      "name": "NewBetTwo",
      "type": "event"
    },
    {
      "anonymous": false,
      "inputs": [
        {
          "indexed": false,
          "name": "player",
          "type": "address"
        },
        {
          "indexed": false,
          "name": "amount",
          "type": "uint256"
        }
      ],
      "name": "NewBetThree",
      "type": "event"
    },
    {
      "anonymous": false,
      "inputs": [
        {
          "indexed": false,
          "name": "player",
          "type": "address"
        },
        {
          "indexed": false,
          "name": "amount",
          "type": "uint256"
        }
      ],
      "name": "NewBetFive",
      "type": "event"
    },
    {
      "anonymous": false,
      "inputs": [
        {
          "indexed": false,
          "name": "player",
          "type": "address"
        },
        {
          "indexed": false,
          "name": "amount",
          "type": "uint256"
        }
      ],
      "name": "NewBetFifty",
      "type": "event"
    },
    {
      "anonymous": false,
      "inputs": [
        {
          "indexed": false,
          "name": "time",
          "type": "uint256"
        }
      ],
      "name": "PlayGame",
      "type": "event"
    },
    {
      "anonymous": false,
      "inputs": [
        {
          "indexed": false,
          "name": "time",
          "type": "uint256"
        }
      ],
      "name": "StopGame",
      "type": "event"
    },
    {
      "constant": false,
      "inputs": [],
      "name": "betTwo",
      "outputs": [],
      "payable": true,
      "stateMutability": "payable",
      "type": "function"
    },
    {
      "constant": false,
      "inputs": [],
      "name": "betThree",
      "outputs": [],
      "payable": true,
      "stateMutability": "payable",
      "type": "function"
    },
    {
      "constant": false,
      "inputs": [],
      "name": "betFive",
      "outputs": [],
      "payable": true,
      "stateMutability": "payable",
      "type": "function"
    },
    {
      "constant": false,
      "inputs": [],
      "name": "betFifty",
      "outputs": [],
      "payable": true,
      "stateMutability": "payable",
      "type": "function"
    },
    {
      "constant": false,
      "inputs": [],
      "name": "play",
      "outputs": [
        {
          "name": "",
          "type": "uint256"
        }
      ],
      "payable": false,
      "stateMutability": "nonpayable",
      "type": "function"
    },
    {
      "constant": true,
      "inputs": [],
      "name": "betLenght",
      "outputs": [
        {
          "name": "",
          "type": "uint256"
        }
      ],
      "payable": false,
      "stateMutability": "view",
      "type": "function"
    },
    {
      "constant": false,
      "inputs": [
        {
          "name": "_type",
          "type": "uint256"
        }
      ],
      "name": "stop",
      "outputs": [],
      "payable": true,
      "stateMutability": "payable",
      "type": "function"
    }
  ],
  "bytecode": "0x60806040526002805560038055600560045560326005556040805190810160405280600a81526020017f38765133583553746f5900000000000000000000000000000000000000000000815250600890805190602001906100619291906100bc565b5034801561006e57600080fd5b504260008190555033600160006101000a81548173ffffffffffffffffffffffffffffffffffffffff021916908373ffffffffffffffffffffffffffffffffffffffff160217905550610161565b828054600181600116156101000203166002900490600052602060002090601f016020900481019282601f106100fd57805160ff191683800117855561012b565b8280016001018555821561012b579182015b8281111561012a57825182559160200191906001019061010f565b5b509050610138919061013c565b5090565b61015e91905b8082111561015a576000816000905550600101610142565b5090565b90565b610fd5806101706000396000f3006080604052600436106100c5576000357c0100000000000000000000000000000000000000000000000000000000900463ffffffff16806316ada547146100ca5780631f7b6d32146100f557806322af00fa14610120578063593feacf1461019b5780635ec01e4d146101a55780636299f8cf146101d057806391422550146101f057806393e84cd9146101fa5780639dabb91414610225578063bfa0b1331461022f578063c1f0039314610262578063dd59d2e11461026c578063eb0017291461029f575b600080fd5b3480156100d657600080fd5b506100df6102ca565b6040518082815260200191505060405180910390f35b34801561010157600080fd5b5061010a6102d0565b6040518082815260200191505060405180910390f35b34801561012c57600080fd5b5061014b600480360381019080803590602001909291905050506102d6565b604051808481526020018373ffffffffffffffffffffffffffffffffffffffff1673ffffffffffffffffffffffffffffffffffffffff168152602001828152602001935050505060405180910390f35b6101a361032f565b005b3480156101b157600080fd5b506101ba6104d5565b6040518082815260200191505060405180910390f35b6101ee600480360381019080803590602001909291905050506104db565b005b6101f861069e565b005b34801561020657600080fd5b5061020f610844565b6040518082815260200191505060405180910390f35b61022d610bbc565b005b34801561023b57600080fd5b50610244610d62565b60405180826000191660001916815260200191505060405180910390f35b61026a610d68565b005b34801561027857600080fd5b50610281610f0e565b60405180826000191660001916815260200191505060405180910390f35b3480156102ab57600080fd5b506102b4610f14565b6040518082815260200191505060405180910390f35b60005481565b60075481565b600b818154811015156102e557fe5b90600052602060002090600302016000915090508060000154908060010160009054906101000a900473ffffffffffffffffffffffffffffffffffffffff16908060020154905083565b62989680341015151561034157600080fd5b600b606060405190810160405280603281526020013373ffffffffffffffffffffffffffffffffffffffff16815260200134815250908060018154018082558091505090600182039060005260206000209060030201600090919290919091506000820151816000015560208201518160010160006101000a81548173ffffffffffffffffffffffffffffffffffffffff021916908373ffffffffffffffffffffffffffffffffffffffff16021790555060408201518160020155505050600160009054906101000a900473ffffffffffffffffffffffffffffffffffffffff1673ffffffffffffffffffffffffffffffffffffffff166108fc349081150290604051600060405180830381858888f19350505050158015610467573d6000803e3d6000fd5b507f9b93b9feee7762992c2ad1bc3134a273b95544623d8382820423fe19d6712cca3334604051808373ffffffffffffffffffffffffffffffffffffffff1673ffffffffffffffffffffffffffffffffffffffff1681526020018281526020019250505060405180910390a1565b60065481565b6000600160009054906101000a900473ffffffffffffffffffffffffffffffffffffffff1673ffffffffffffffffffffffffffffffffffffffff163373ffffffffffffffffffffffffffffffffffffffff1614151561053957600080fd5b600090505b600b8054905081101561064a5781600b8281548110151561055b57fe5b906000526020600020906003020160000154141561063d57600b8181548110151561058257fe5b906000526020600020906003020160010160009054906101000a900473ffffffffffffffffffffffffffffffffffffffff1673ffffffffffffffffffffffffffffffffffffffff166108fc600b838154811015156105dc57fe5b906000526020600020906003020160000154600b848154811015156105fd57fe5b906000526020600020906003020160020154029081150290604051600060405180830381858888f1935050505015801561063b573d6000803e3d6000fd5b505b808060010191505061053e565b6000600b816106599190610f21565b50426000819055507fb0f6e393e836b3fa2360731681f20187440362cd97fb998ae3dbbb5ad4ecb2a36000546040518082815260200191505060405180910390a15050565b6298968034101515156106b057600080fd5b600b606060405190810160405280600281526020013373ffffffffffffffffffffffffffffffffffffffff16815260200134815250908060018154018082558091505090600182039060005260206000209060030201600090919290919091506000820151816000015560208201518160010160006101000a81548173ffffffffffffffffffffffffffffffffffffffff021916908373ffffffffffffffffffffffffffffffffffffffff16021790555060408201518160020155505050600160009054906101000a900473ffffffffffffffffffffffffffffffffffffffff1673ffffffffffffffffffffffffffffffffffffffff166108fc349081150290604051600060405180830381858888f193505050501580156107d6573d6000803e3d6000fd5b507fdd92187a14de7740ac2c0b5abb8bdeb3f9c7b3337c2a76b834e4e0d3530c19e53334604051808373ffffffffffffffffffffffffffffffffffffffff1673ffffffffffffffffffffffffffffffffffffffff1681526020018281526020019250505060405180910390a1565b6000806000600160009054906101000a900473ffffffffffffffffffffffffffffffffffffffff1673ffffffffffffffffffffffffffffffffffffffff163373ffffffffffffffffffffffffffffffffffffffff161415156108a557600080fd5b449150429050603781836008604051602001808481526020018381526020018280546001816001161561010002031660029004801561091b5780601f106108f957610100808354040283529182019161091b565b820191906000526020600020905b815481529060010190602001808311610907575b505093505050506040516020818303038152906040526040518082805190602001908083835b6020831015156109665780518252602082019150602081019050602083039250610941565b6001836020036101000a0380198251168184511680821785525050505050509050019150506040518091039020600190048115156109a057fe5b0660ff16600681905550808260086040516020018084815260200183815260200182805460018160011615610100020316600290048015610a185780601f106109f6576101008083540402835291820191610a18565b820191906000526020600020905b815481529060010190602001808311610a04575b505093505050506040516020818303038152906040526040518082805190602001908083835b602083101515610a635780518252602082019150602081019050602083039250610a3e565b6001836020036101000a0380198251168184511680821785525050505050509050019150506040518091039020600a81600019169055506002600a54600654604051602001808360001916600019168152602001828152602001925050506040516020818303038152906040526040518082805190602001908083835b602083101515610b055780518252602082019150602081019050602083039250610ae0565b6001836020036101000a0380198251168184511680821785525050505050509050019150506020604051808303816000865af1158015610b49573d6000803e3d6000fd5b5050506040513d6020811015610b5e57600080fd5b8101908080519060200190929190505050600981600019169055507ff64d796e649654152635006c0e38eb3d2ec31920f3e6fb38f14aeb20c22c16896006546040518082815260200191505060405180910390a16006549250505090565b629896803410151515610bce57600080fd5b600b606060405190810160405280600381526020013373ffffffffffffffffffffffffffffffffffffffff16815260200134815250908060018154018082558091505090600182039060005260206000209060030201600090919290919091506000820151816000015560208201518160010160006101000a81548173ffffffffffffffffffffffffffffffffffffffff021916908373ffffffffffffffffffffffffffffffffffffffff16021790555060408201518160020155505050600160009054906101000a900473ffffffffffffffffffffffffffffffffffffffff1673ffffffffffffffffffffffffffffffffffffffff166108fc349081150290604051600060405180830381858888f19350505050158015610cf4573d6000803e3d6000fd5b507feecdfce47f3ba6fac5cb5a8826eb8e71bce2a86ad6b9950b9f2553aa428533af3334604051808373ffffffffffffffffffffffffffffffffffffffff1673ffffffffffffffffffffffffffffffffffffffff1681526020018281526020019250505060405180910390a1565b600a5481565b629896803410151515610d7a57600080fd5b600b606060405190810160405280600581526020013373ffffffffffffffffffffffffffffffffffffffff16815260200134815250908060018154018082558091505090600182039060005260206000209060030201600090919290919091506000820151816000015560208201518160010160006101000a81548173ffffffffffffffffffffffffffffffffffffffff021916908373ffffffffffffffffffffffffffffffffffffffff16021790555060408201518160020155505050600160009054906101000a900473ffffffffffffffffffffffffffffffffffffffff1673ffffffffffffffffffffffffffffffffffffffff166108fc349081150290604051600060405180830381858888f19350505050158015610ea0573d6000803e3d6000fd5b507fac4d4313a1c1237abe16ef6286f78d3dd3f91c1c25b780bc6f483b2ba06279c03334604051808373ffffffffffffffffffffffffffffffffffffffff1673ffffffffffffffffffffffffffffffffffffffff1681526020018281526020019250505060405180910390a1565b60095481565b6000600b80549050905090565b815481835581811115610f4e57600302816003028360005260206000209182019101610f4d9190610f53565b5b505050565b610fa691905b80821115610fa2576000808201600090556001820160006101000a81549073ffffffffffffffffffffffffffffffffffffffff0219169055600282016000905550600301610f59565b5090565b905600a165627a7a72305820751b494b0ad228ca3a8bdfd10ac2ce0162b85097b56f40171006b3c13e11b1070029",
  "source": "pragma solidity ^0.4.23;\n\n\ncontract RingGame {\n    \n    uint public time;\n    address owner;\n    bool allowed;\n    uint two = 2;\n    uint three = 3;\n    uint five = 5;\n    uint fifty = 50;\n    uint public random;\n    uint public length;\n    string secretKey = \"8vQ3X5StoY\";\n    bytes32 public hashval;\n    bytes32 public salt;\n    struct Bet {\n        uint betType;\n        address player;\n        uint value;\n    }\n    \n    Bet[] public bets;\n    \n    event NewBetTwo(address player, uint amount);\n    event NewBetThree(address player, uint amount);\n    event NewBetFive(address player, uint amount);\n    event NewBetFifty(address player, uint amount);\n    event PlayGame(uint time);\n    event StopGame(uint time);\n    \n    modifier OnlyOwner(){\n        require(msg.sender == owner);\n        _;\n    }\n    \n    constructor() public {\n        time = now;\n        owner = msg.sender;\n    }\n    \n    function betTwo() public payable {\n        require(msg.value >= 10 trx);\n        bets.push(Bet({\n            betType : 2,\n            player : msg.sender,\n            value : msg.value\n        }));\n        owner.transfer(msg.value);\n        emit NewBetTwo(msg.sender, msg.value);\n    }\n    \n     function betThree() public payable {\n        require(msg.value >= 10 trx);\n        bets.push(Bet({\n            betType : 3,\n            player : msg.sender,\n            value : msg.value\n        }));\n        owner.transfer(msg.value);\n        emit NewBetThree(msg.sender, msg.value);\n        \n    }\n    \n     function betFive() public payable {\n        require(msg.value >= 10 trx);\n        bets.push(Bet({\n            betType : 5,\n            player : msg.sender,\n            value : msg.value\n        }));\n        owner.transfer(msg.value);\n        emit NewBetFive(msg.sender, msg.value);\n        \n    }\n    \n     function betFifty() public payable {\n        require(msg.value >= 10 trx);\n        bets.push(Bet({\n            betType : 50,\n            player : msg.sender,\n            value : msg.value\n        }));\n        owner.transfer(msg.value);\n        \n        emit NewBetFifty(msg.sender, msg.value);\n        \n    }\n    \n    function play() public OnlyOwner returns (uint) {\n        uint256 diff = block.difficulty;\n        uint256 timestamp = now;\n       \n        random = uint8(uint256(keccak256(abi.encodePacked(timestamp,diff, secretKey)))%55);\n        salt = keccak256(abi.encodePacked(timestamp,diff, secretKey));\n        hashval = sha256(abi.encodePacked(salt,random));\n        emit PlayGame(random);\n        return random;\n   }\n\n   function betLenght() public view returns (uint){\n       return bets.length;\n   }\n\n\n    function stop(uint _type) public payable OnlyOwner{\n        for(uint256 i = 0; i < bets.length; i++){\n           if(bets[i].betType == _type){\n               bets[i].player.transfer(bets[i].value*bets[i].betType);\n           } \n        }\n        \n        bets.length = 0;\n        time = now;\n        emit StopGame(time);\n    }\n    \n}",
  "sourcePath": "/home/oscar/ring/contracts/RingGame.sol",
  "compiler": {
    "name": "solc",
    "version": "0.4.24-develop.2018.8.28+commit.3ba0cdec.mod.Emscripten.clang"
  },
  "schemaVersion": "2.0.1",
  "updatedAt": "2019-09-04T19:27:46.248Z"
}